{
  "contractName": "ERC721MintableBurnable",
  "abi": [
    {
      "inputs": [
        {
          "internalType": "string",
          "name": "name",
          "type": "string"
        },
        {
          "internalType": "string",
          "name": "symbol",
          "type": "string"
        },
        {
          "internalType": "string",
          "name": "baseTokenURI",
          "type": "string"
        }
      ],
      "stateMutability": "nonpayable",
      "type": "constructor"
    },
    {
      "anonymous": false,
      "inputs": [
        {
          "indexed": true,
          "internalType": "address",
          "name": "owner",
          "type": "address"
        },
        {
          "indexed": true,
          "internalType": "address",
          "name": "approved",
          "type": "address"
        },
        {
          "indexed": true,
          "internalType": "uint256",
          "name": "tokenId",
          "type": "uint256"
        }
      ],
      "name": "Approval",
      "type": "event"
    },
    {
      "anonymous": false,
      "inputs": [
        {
          "indexed": true,
          "internalType": "address",
          "name": "owner",
          "type": "address"
        },
        {
          "indexed": true,
          "internalType": "address",
          "name": "operator",
          "type": "address"
        },
        {
          "indexed": false,
          "internalType": "bool",
          "name": "approved",
          "type": "bool"
        }
      ],
      "name": "ApprovalForAll",
      "type": "event"
    },
    {
      "anonymous": false,
      "inputs": [
        {
          "indexed": true,
          "internalType": "bytes32",
          "name": "role",
          "type": "bytes32"
        },
        {
          "indexed": true,
          "internalType": "bytes32",
          "name": "previousAdminRole",
          "type": "bytes32"
        },
        {
          "indexed": true,
          "internalType": "bytes32",
          "name": "newAdminRole",
          "type": "bytes32"
        }
      ],
      "name": "RoleAdminChanged",
      "type": "event"
    },
    {
      "anonymous": false,
      "inputs": [
        {
          "indexed": true,
          "internalType": "bytes32",
          "name": "role",
          "type": "bytes32"
        },
        {
          "indexed": true,
          "internalType": "address",
          "name": "account",
          "type": "address"
        },
        {
          "indexed": true,
          "internalType": "address",
          "name": "sender",
          "type": "address"
        }
      ],
      "name": "RoleGranted",
      "type": "event"
    },
    {
      "anonymous": false,
      "inputs": [
        {
          "indexed": true,
          "internalType": "bytes32",
          "name": "role",
          "type": "bytes32"
        },
        {
          "indexed": true,
          "internalType": "address",
          "name": "account",
          "type": "address"
        },
        {
          "indexed": true,
          "internalType": "address",
          "name": "sender",
          "type": "address"
        }
      ],
      "name": "RoleRevoked",
      "type": "event"
    },
    {
      "anonymous": false,
      "inputs": [
        {
          "indexed": true,
          "internalType": "address",
          "name": "from",
          "type": "address"
        },
        {
          "indexed": true,
          "internalType": "address",
          "name": "to",
          "type": "address"
        },
        {
          "indexed": true,
          "internalType": "uint256",
          "name": "tokenId",
          "type": "uint256"
        }
      ],
      "name": "Transfer",
      "type": "event"
    },
    {
      "inputs": [],
      "name": "DEFAULT_ADMIN_ROLE",
      "outputs": [
        {
          "internalType": "bytes32",
          "name": "",
          "type": "bytes32"
        }
      ],
      "stateMutability": "view",
      "type": "function"
    },
    {
      "inputs": [],
      "name": "MINTER_ROLE",
      "outputs": [
        {
          "internalType": "bytes32",
          "name": "",
          "type": "bytes32"
        }
      ],
      "stateMutability": "view",
      "type": "function"
    },
    {
      "inputs": [
        {
          "internalType": "address",
          "name": "to",
          "type": "address"
        },
        {
          "internalType": "uint256",
          "name": "tokenId",
          "type": "uint256"
        }
      ],
      "name": "approve",
      "outputs": [],
      "stateMutability": "nonpayable",
      "type": "function"
    },
    {
      "inputs": [
        {
          "internalType": "address",
          "name": "owner",
          "type": "address"
        }
      ],
      "name": "balanceOf",
      "outputs": [
        {
          "internalType": "uint256",
          "name": "",
          "type": "uint256"
        }
      ],
      "stateMutability": "view",
      "type": "function"
    },
    {
      "inputs": [
        {
          "internalType": "uint256",
          "name": "tokenId",
          "type": "uint256"
        }
      ],
      "name": "burn",
      "outputs": [],
      "stateMutability": "nonpayable",
      "type": "function"
    },
    {
      "inputs": [
        {
          "internalType": "uint256",
          "name": "tokenId",
          "type": "uint256"
        }
      ],
      "name": "getApproved",
      "outputs": [
        {
          "internalType": "address",
          "name": "",
          "type": "address"
        }
      ],
      "stateMutability": "view",
      "type": "function"
    },
    {
      "inputs": [
        {
          "internalType": "bytes32",
          "name": "role",
          "type": "bytes32"
        }
      ],
      "name": "getRoleAdmin",
      "outputs": [
        {
          "internalType": "bytes32",
          "name": "",
          "type": "bytes32"
        }
      ],
      "stateMutability": "view",
      "type": "function"
    },
    {
      "inputs": [
        {
          "internalType": "bytes32",
          "name": "role",
          "type": "bytes32"
        },
        {
          "internalType": "uint256",
          "name": "index",
          "type": "uint256"
        }
      ],
      "name": "getRoleMember",
      "outputs": [
        {
          "internalType": "address",
          "name": "",
          "type": "address"
        }
      ],
      "stateMutability": "view",
      "type": "function"
    },
    {
      "inputs": [
        {
          "internalType": "bytes32",
          "name": "role",
          "type": "bytes32"
        }
      ],
      "name": "getRoleMemberCount",
      "outputs": [
        {
          "internalType": "uint256",
          "name": "",
          "type": "uint256"
        }
      ],
      "stateMutability": "view",
      "type": "function"
    },
    {
      "inputs": [
        {
          "internalType": "bytes32",
          "name": "role",
          "type": "bytes32"
        },
        {
          "internalType": "address",
          "name": "account",
          "type": "address"
        }
      ],
      "name": "grantRole",
      "outputs": [],
      "stateMutability": "nonpayable",
      "type": "function"
    },
    {
      "inputs": [
        {
          "internalType": "bytes32",
          "name": "role",
          "type": "bytes32"
        },
        {
          "internalType": "address",
          "name": "account",
          "type": "address"
        }
      ],
      "name": "hasRole",
      "outputs": [
        {
          "internalType": "bool",
          "name": "",
          "type": "bool"
        }
      ],
      "stateMutability": "view",
      "type": "function"
    },
    {
      "inputs": [
        {
          "internalType": "address",
          "name": "owner",
          "type": "address"
        },
        {
          "internalType": "address",
          "name": "operator",
          "type": "address"
        }
      ],
      "name": "isApprovedForAll",
      "outputs": [
        {
          "internalType": "bool",
          "name": "",
          "type": "bool"
        }
      ],
      "stateMutability": "view",
      "type": "function"
    },
    {
      "inputs": [],
      "name": "name",
      "outputs": [
        {
          "internalType": "string",
          "name": "",
          "type": "string"
        }
      ],
      "stateMutability": "view",
      "type": "function"
    },
    {
      "inputs": [
        {
          "internalType": "uint256",
          "name": "tokenId",
          "type": "uint256"
        }
      ],
      "name": "ownerOf",
      "outputs": [
        {
          "internalType": "address",
          "name": "",
          "type": "address"
        }
      ],
      "stateMutability": "view",
      "type": "function"
    },
    {
      "inputs": [
        {
          "internalType": "bytes32",
          "name": "role",
          "type": "bytes32"
        },
        {
          "internalType": "address",
          "name": "account",
          "type": "address"
        }
      ],
      "name": "renounceRole",
      "outputs": [],
      "stateMutability": "nonpayable",
      "type": "function"
    },
    {
      "inputs": [
        {
          "internalType": "bytes32",
          "name": "role",
          "type": "bytes32"
        },
        {
          "internalType": "address",
          "name": "account",
          "type": "address"
        }
      ],
      "name": "revokeRole",
      "outputs": [],
      "stateMutability": "nonpayable",
      "type": "function"
    },
    {
      "inputs": [
        {
          "internalType": "address",
          "name": "from",
          "type": "address"
        },
        {
          "internalType": "address",
          "name": "to",
          "type": "address"
        },
        {
          "internalType": "uint256",
          "name": "tokenId",
          "type": "uint256"
        }
      ],
      "name": "safeTransferFrom",
      "outputs": [],
      "stateMutability": "nonpayable",
      "type": "function"
    },
    {
      "inputs": [
        {
          "internalType": "address",
          "name": "from",
          "type": "address"
        },
        {
          "internalType": "address",
          "name": "to",
          "type": "address"
        },
        {
          "internalType": "uint256",
          "name": "tokenId",
          "type": "uint256"
        },
        {
          "internalType": "bytes",
          "name": "_data",
          "type": "bytes"
        }
      ],
      "name": "safeTransferFrom",
      "outputs": [],
      "stateMutability": "nonpayable",
      "type": "function"
    },
    {
      "inputs": [
        {
          "internalType": "address",
          "name": "operator",
          "type": "address"
        },
        {
          "internalType": "bool",
          "name": "approved",
          "type": "bool"
        }
      ],
      "name": "setApprovalForAll",
      "outputs": [],
      "stateMutability": "nonpayable",
      "type": "function"
    },
    {
      "inputs": [],
      "name": "symbol",
      "outputs": [
        {
          "internalType": "string",
          "name": "",
          "type": "string"
        }
      ],
      "stateMutability": "view",
      "type": "function"
    },
    {
      "inputs": [
        {
          "internalType": "uint256",
          "name": "index",
          "type": "uint256"
        }
      ],
      "name": "tokenByIndex",
      "outputs": [
        {
          "internalType": "uint256",
          "name": "",
          "type": "uint256"
        }
      ],
      "stateMutability": "view",
      "type": "function"
    },
    {
      "inputs": [
        {
          "internalType": "address",
          "name": "owner",
          "type": "address"
        },
        {
          "internalType": "uint256",
          "name": "index",
          "type": "uint256"
        }
      ],
      "name": "tokenOfOwnerByIndex",
      "outputs": [
        {
          "internalType": "uint256",
          "name": "",
          "type": "uint256"
        }
      ],
      "stateMutability": "view",
      "type": "function"
    },
    {
      "inputs": [
        {
          "internalType": "uint256",
          "name": "tokenId",
          "type": "uint256"
        }
      ],
      "name": "tokenURI",
      "outputs": [
        {
          "internalType": "string",
          "name": "",
          "type": "string"
        }
      ],
      "stateMutability": "view",
      "type": "function"
    },
    {
      "inputs": [],
      "name": "totalSupply",
      "outputs": [
        {
          "internalType": "uint256",
          "name": "",
          "type": "uint256"
        }
      ],
      "stateMutability": "view",
      "type": "function"
    },
    {
      "inputs": [
        {
          "internalType": "address",
          "name": "from",
          "type": "address"
        },
        {
          "internalType": "address",
          "name": "to",
          "type": "address"
        },
        {
          "internalType": "uint256",
          "name": "tokenId",
          "type": "uint256"
        }
      ],
      "name": "transferFrom",
      "outputs": [],
      "stateMutability": "nonpayable",
      "type": "function"
    },
    {
      "inputs": [
        {
          "internalType": "address",
          "name": "to",
          "type": "address"
        }
      ],
      "name": "mint",
      "outputs": [
        {
          "internalType": "uint256",
          "name": "",
          "type": "uint256"
        }
      ],
      "stateMutability": "nonpayable",
      "type": "function"
    },
    {
      "inputs": [
        {
          "internalType": "address",
          "name": "newMinter",
          "type": "address"
        }
      ],
      "name": "grantMinterRole",
      "outputs": [],
      "stateMutability": "nonpayable",
      "type": "function"
    },
    {
      "inputs": [
        {
          "internalType": "address",
          "name": "Minter",
          "type": "address"
        }
      ],
      "name": "revokeMinterRole",
      "outputs": [],
      "stateMutability": "nonpayable",
      "type": "function"
    },
    {
      "inputs": [
        {
          "internalType": "bytes4",
          "name": "interfaceId",
          "type": "bytes4"
        }
      ],
      "name": "supportsInterface",
      "outputs": [
        {
          "internalType": "bool",
          "name": "",
          "type": "bool"
        }
      ],
      "stateMutability": "view",
      "type": "function"
    }
  ],
  "bytecode": "0x60806040523480156200001157600080fd5b50604051620049c3380380620049c38339818101604052810190620000379190620005d7565b82828160029080519060200190620000519291906200038a565b5080600390805190602001906200006a9291906200038a565b50505080600d9080519060200190620000859291906200038a565b50620000aa6000801b6200009e620000f460201b60201c565b620000fc60201b60201c565b620000eb7f9f2df0fed2c77648de5860a4cc508cd0818c85b8b8a1ab4ceeef8d981c8956a6620000df620000f460201b60201c565b620000fc60201b60201c565b505050620006f5565b600033905090565b6200010e82826200011260201b60201c565b5050565b6200012982826200015a60201b620010d01760201c565b6200015581600160008581526020019081526020016000206200024b60201b620011b01790919060201c565b505050565b6200016c82826200028360201b60201c565b6200024757600160008084815260200190815260200160002060000160008373ffffffffffffffffffffffffffffffffffffffff1673ffffffffffffffffffffffffffffffffffffffff16815260200190815260200160002060006101000a81548160ff021916908315150217905550620001ec620000f460201b60201c565b73ffffffffffffffffffffffffffffffffffffffff168173ffffffffffffffffffffffffffffffffffffffff16837f2f8788117e7eff1d82e926ec794901d17c78024a50270940304540a733656f0d60405160405180910390a45b5050565b60006200027b836000018373ffffffffffffffffffffffffffffffffffffffff1660001b620002ed60201b60201c565b905092915050565b600080600084815260200190815260200160002060000160008373ffffffffffffffffffffffffffffffffffffffff1673ffffffffffffffffffffffffffffffffffffffff16815260200190815260200160002060009054906101000a900460ff16905092915050565b60006200030183836200036760201b60201c565b6200035c57826000018290806001815401808255809150506001900390600052602060002001600090919091909150558260000180549050836001016000848152602001908152602001600020819055506001905062000361565b600090505b92915050565b600080836001016000848152602001908152602001600020541415905092915050565b8280546200039890620006bf565b90600052602060002090601f016020900481019282620003bc576000855562000408565b82601f10620003d757805160ff191683800117855562000408565b8280016001018555821562000408579182015b8281111562000407578251825591602001919060010190620003ea565b5b5090506200041791906200041b565b5090565b5b80821115620004365760008160009055506001016200041c565b5090565b6000604051905090565b600080fd5b600080fd5b600080fd5b600080fd5b6000601f19601f8301169050919050565b7f4e487b7100000000000000000000000000000000000000000000000000000000600052604160045260246000fd5b620004a38262000458565b810181811067ffffffffffffffff82111715620004c557620004c462000469565b5b80604052505050565b6000620004da6200043a565b9050620004e8828262000498565b919050565b600067ffffffffffffffff8211156200050b576200050a62000469565b5b620005168262000458565b9050602081019050919050565b60005b838110156200054357808201518184015260208101905062000526565b8381111562000553576000848401525b50505050565b6000620005706200056a84620004ed565b620004ce565b9050828152602081018484840111156200058f576200058e62000453565b5b6200059c84828562000523565b509392505050565b600082601f830112620005bc57620005bb6200044e565b5b8151620005ce84826020860162000559565b91505092915050565b600080600060608486031215620005f357620005f262000444565b5b600084015167ffffffffffffffff81111562000614576200061362000449565b5b6200062286828701620005a4565b935050602084015167ffffffffffffffff81111562000646576200064562000449565b5b6200065486828701620005a4565b925050604084015167ffffffffffffffff81111562000678576200067762000449565b5b6200068686828701620005a4565b9150509250925092565b7f4e487b7100000000000000000000000000000000000000000000000000000000600052602260045260246000fd5b60006002820490506001821680620006d857607f821691505b60208210811415620006ef57620006ee62000690565b5b50919050565b6142be80620007056000396000f3fe608060405234801561001057600080fd5b50600436106101cf5760003560e01c80636352211e11610104578063a217fddf116100a2578063ca15c87311610071578063ca15c87314610574578063d5391393146105a4578063d547741f146105c2578063e985e9c5146105de576101cf565b8063a217fddf146104ee578063a22cb4651461050c578063b88d4fde14610528578063c87b56dd14610544576101cf565b806370a08231116100de57806370a08231146104405780639010d07c1461047057806391d14854146104a057806395d89b41146104d0576101cf565b80636352211e146103c457806369e2f0fb146103f45780636a62784214610410576101cf565b80632f2ff15d116101715780633dd1eb611161014b5780633dd1eb611461034057806342842e0e1461035c57806342966c68146103785780634f6ccce714610394576101cf565b80632f2ff15d146102d85780632f745c59146102f457806336568abe14610324576101cf565b8063095ea7b3116101ad578063095ea7b31461025257806318160ddd1461026e57806323b872dd1461028c578063248a9ca3146102a8576101cf565b806301ffc9a7146101d457806306fdde0314610204578063081812fc14610222575b600080fd5b6101ee60048036038101906101e99190612c69565b61060e565b6040516101fb9190612cb1565b60405180910390f35b61020c610620565b6040516102199190612d65565b60405180910390f35b61023c60048036038101906102379190612dbd565b6106b2565b6040516102499190612e2b565b60405180910390f35b61026c60048036038101906102679190612e72565b610737565b005b61027661084f565b6040516102839190612ec1565b60405180910390f35b6102a660048036038101906102a19190612edc565b61085c565b005b6102c260048036038101906102bd9190612f65565b6108bc565b6040516102cf9190612fa1565b60405180910390f35b6102f260048036038101906102ed9190612fbc565b6108db565b005b61030e60048036038101906103099190612e72565b610904565b60405161031b9190612ec1565b60405180910390f35b61033e60048036038101906103399190612fbc565b6109a9565b005b61035a60048036038101906103559190612ffc565b610a2c565b005b61037660048036038101906103719190612edc565b610a59565b005b610392600480360381019061038d9190612dbd565b610a79565b005b6103ae60048036038101906103a99190612dbd565b610ad5565b6040516103bb9190612ec1565b60405180910390f35b6103de60048036038101906103d99190612dbd565b610b46565b6040516103eb9190612e2b565b60405180910390f35b61040e60048036038101906104099190612ffc565b610bf8565b005b61042a60048036038101906104259190612ffc565b610c25565b6040516104379190612ec1565b60405180910390f35b61045a60048036038101906104559190612ffc565b610cc2565b6040516104679190612ec1565b60405180910390f35b61048a60048036038101906104859190613029565b610d7a565b6040516104979190612e2b565b60405180910390f35b6104ba60048036038101906104b59190612fbc565b610da9565b6040516104c79190612cb1565b60405180910390f35b6104d8610e13565b6040516104e59190612d65565b60405180910390f35b6104f6610ea5565b6040516105039190612fa1565b60405180910390f35b61052660048036038101906105219190613095565b610eac565b005b610542600480360381019061053d919061320a565b610ec2565b005b61055e60048036038101906105599190612dbd565b610f24565b60405161056b9190612d65565b60405180910390f35b61058e60048036038101906105899190612f65565b610fcb565b60405161059b9190612ec1565b60405180910390f35b6105ac610fef565b6040516105b99190612fa1565b60405180910390f35b6105dc60048036038101906105d79190612fbc565b611013565b005b6105f860048036038101906105f3919061328d565b61103c565b6040516106059190612cb1565b60405180910390f35b6000610619826111e0565b9050919050565b60606002805461062f906132fc565b80601f016020809104026020016040519081016040528092919081815260200182805461065b906132fc565b80156106a85780601f1061067d576101008083540402835291602001916106a8565b820191906000526020600020905b81548152906001019060200180831161068b57829003601f168201915b5050505050905090565b60006106bd8261125a565b6106fc576040517f08c379a00000000000000000000000000000000000000000000000000000000081526004016106f3906133a0565b60405180910390fd5b6006600083815260200190815260200160002060009054906101000a900473ffffffffffffffffffffffffffffffffffffffff169050919050565b600061074282610b46565b90508073ffffffffffffffffffffffffffffffffffffffff168373ffffffffffffffffffffffffffffffffffffffff1614156107b3576040517f08c379a00000000000000000000000000000000000000000000000000000000081526004016107aa90613432565b60405180910390fd5b8073ffffffffffffffffffffffffffffffffffffffff166107d26112c6565b73ffffffffffffffffffffffffffffffffffffffff1614806108015750610800816107fb6112c6565b61103c565b5b610840576040517f08c379a0000000000000000000000000000000000000000000000000000000008152600401610837906134c4565b60405180910390fd5b61084a83836112ce565b505050565b6000600a80549050905090565b61086d6108676112c6565b82611387565b6108ac576040517f08c379a00000000000000000000000000000000000000000000000000000000081526004016108a390613556565b60405180910390fd5b6108b7838383611465565b505050565b6000806000838152602001908152602001600020600101549050919050565b6108e4826108bc565b6108f5816108f06112c6565b6116c1565b6108ff838361175e565b505050565b600061090f83610cc2565b8210610950576040517f08c379a0000000000000000000000000000000000000000000000000000000008152600401610947906135e8565b60405180910390fd5b600860008473ffffffffffffffffffffffffffffffffffffffff1673ffffffffffffffffffffffffffffffffffffffff168152602001908152602001600020600083815260200190815260200160002054905092915050565b6109b16112c6565b73ffffffffffffffffffffffffffffffffffffffff168173ffffffffffffffffffffffffffffffffffffffff1614610a1e576040517f08c379a0000000000000000000000000000000000000000000000000000000008152600401610a159061367a565b60405180910390fd5b610a288282611792565b5050565b610a567f9f2df0fed2c77648de5860a4cc508cd0818c85b8b8a1ab4ceeef8d981c8956a6826108db565b50565b610a7483838360405180602001604052806000815250610ec2565b505050565b610a8a610a846112c6565b82611387565b610ac9576040517f08c379a0000000000000000000000000000000000000000000000000000000008152600401610ac09061370c565b60405180910390fd5b610ad2816117c6565b50565b6000610adf61084f565b8210610b20576040517f08c379a0000000000000000000000000000000000000000000000000000000008152600401610b179061379e565b60405180910390fd5b600a8281548110610b3457610b336137be565b5b90600052602060002001549050919050565b6000806004600084815260200190815260200160002060009054906101000a900473ffffffffffffffffffffffffffffffffffffffff169050600073ffffffffffffffffffffffffffffffffffffffff168173ffffffffffffffffffffffffffffffffffffffff161415610bef576040517f08c379a0000000000000000000000000000000000000000000000000000000008152600401610be69061385f565b60405180910390fd5b80915050919050565b610c227f9f2df0fed2c77648de5860a4cc508cd0818c85b8b8a1ab4ceeef8d981c8956a682611013565b50565b6000610c587f9f2df0fed2c77648de5860a4cc508cd0818c85b8b8a1ab4ceeef8d981c8956a6610c536112c6565b610da9565b610c97576040517f08c379a0000000000000000000000000000000000000000000000000000000008152600401610c8e906138f1565b60405180910390fd5b6000610ca3600c6118d7565b9050610caf83826118e5565b610cb9600c611ab3565b80915050919050565b60008073ffffffffffffffffffffffffffffffffffffffff168273ffffffffffffffffffffffffffffffffffffffff161415610d33576040517f08c379a0000000000000000000000000000000000000000000000000000000008152600401610d2a90613983565b60405180910390fd5b600560008373ffffffffffffffffffffffffffffffffffffffff1673ffffffffffffffffffffffffffffffffffffffff168152602001908152602001600020549050919050565b6000610da18260016000868152602001908152602001600020611ac990919063ffffffff16565b905092915050565b600080600084815260200190815260200160002060000160008373ffffffffffffffffffffffffffffffffffffffff1673ffffffffffffffffffffffffffffffffffffffff16815260200190815260200160002060009054906101000a900460ff16905092915050565b606060038054610e22906132fc565b80601f0160208091040260200160405190810160405280929190818152602001828054610e4e906132fc565b8015610e9b5780601f10610e7057610100808354040283529160200191610e9b565b820191906000526020600020905b815481529060010190602001808311610e7e57829003601f168201915b5050505050905090565b6000801b81565b610ebe610eb76112c6565b8383611ae3565b5050565b610ed3610ecd6112c6565b83611387565b610f12576040517f08c379a0000000000000000000000000000000000000000000000000000000008152600401610f0990613556565b60405180910390fd5b610f1e84848484611c50565b50505050565b6060610f2f8261125a565b610f6e576040517f08c379a0000000000000000000000000000000000000000000000000000000008152600401610f6590613a15565b60405180910390fd5b6000610f78611cac565b90506000815111610f985760405180602001604052806000815250610fc3565b80610fa284611d3e565b604051602001610fb3929190613a71565b6040516020818303038152906040525b915050919050565b6000610fe860016000848152602001908152602001600020611e9f565b9050919050565b7f9f2df0fed2c77648de5860a4cc508cd0818c85b8b8a1ab4ceeef8d981c8956a681565b61101c826108bc565b61102d816110286112c6565b6116c1565b6110378383611792565b505050565b6000600760008473ffffffffffffffffffffffffffffffffffffffff1673ffffffffffffffffffffffffffffffffffffffff16815260200190815260200160002060008373ffffffffffffffffffffffffffffffffffffffff1673ffffffffffffffffffffffffffffffffffffffff16815260200190815260200160002060009054906101000a900460ff16905092915050565b6110da8282610da9565b6111ac57600160008084815260200190815260200160002060000160008373ffffffffffffffffffffffffffffffffffffffff1673ffffffffffffffffffffffffffffffffffffffff16815260200190815260200160002060006101000a81548160ff0219169083151502179055506111516112c6565b73ffffffffffffffffffffffffffffffffffffffff168173ffffffffffffffffffffffffffffffffffffffff16837f2f8788117e7eff1d82e926ec794901d17c78024a50270940304540a733656f0d60405160405180910390a45b5050565b60006111d8836000018373ffffffffffffffffffffffffffffffffffffffff1660001b611eb4565b905092915050565b60007f780e9d63000000000000000000000000000000000000000000000000000000007bffffffffffffffffffffffffffffffffffffffffffffffffffffffff1916827bffffffffffffffffffffffffffffffffffffffffffffffffffffffff19161480611253575061125282611f24565b5b9050919050565b60008073ffffffffffffffffffffffffffffffffffffffff166004600084815260200190815260200160002060009054906101000a900473ffffffffffffffffffffffffffffffffffffffff1673ffffffffffffffffffffffffffffffffffffffff1614159050919050565b600033905090565b816006600083815260200190815260200160002060006101000a81548173ffffffffffffffffffffffffffffffffffffffff021916908373ffffffffffffffffffffffffffffffffffffffff160217905550808273ffffffffffffffffffffffffffffffffffffffff1661134183610b46565b73ffffffffffffffffffffffffffffffffffffffff167f8c5be1e5ebec7d5bd14f71427d1e84f3dd0314c0f7b2291e5b200ac8c7c3b92560405160405180910390a45050565b60006113928261125a565b6113d1576040517f08c379a00000000000000000000000000000000000000000000000000000000081526004016113c890613b07565b60405180910390fd5b60006113dc83610b46565b90508073ffffffffffffffffffffffffffffffffffffffff168473ffffffffffffffffffffffffffffffffffffffff16148061144b57508373ffffffffffffffffffffffffffffffffffffffff16611433846106b2565b73ffffffffffffffffffffffffffffffffffffffff16145b8061145c575061145b818561103c565b5b91505092915050565b8273ffffffffffffffffffffffffffffffffffffffff1661148582610b46565b73ffffffffffffffffffffffffffffffffffffffff16146114db576040517f08c379a00000000000000000000000000000000000000000000000000000000081526004016114d290613b99565b60405180910390fd5b600073ffffffffffffffffffffffffffffffffffffffff168273ffffffffffffffffffffffffffffffffffffffff16141561154b576040517f08c379a000000000000000000000000000000000000000000000000000000000815260040161154290613c2b565b60405180910390fd5b611556838383612006565b6115616000826112ce565b6001600560008573ffffffffffffffffffffffffffffffffffffffff1673ffffffffffffffffffffffffffffffffffffffff16815260200190815260200160002060008282546115b19190613c7a565b925050819055506001600560008473ffffffffffffffffffffffffffffffffffffffff1673ffffffffffffffffffffffffffffffffffffffff16815260200190815260200160002060008282546116089190613cae565b92505081905550816004600083815260200190815260200160002060006101000a81548173ffffffffffffffffffffffffffffffffffffffff021916908373ffffffffffffffffffffffffffffffffffffffff160217905550808273ffffffffffffffffffffffffffffffffffffffff168473ffffffffffffffffffffffffffffffffffffffff167fddf252ad1be2c89b69c2b068fc378daa952ba7f163c4a11628f55a4df523b3ef60405160405180910390a4505050565b6116cb8282610da9565b61175a576116f08173ffffffffffffffffffffffffffffffffffffffff166014612016565b6116fe8360001c6020612016565b60405160200161170f929190613d9c565b6040516020818303038152906040526040517f08c379a00000000000000000000000000000000000000000000000000000000081526004016117519190612d65565b60405180910390fd5b5050565b61176882826110d0565b61178d81600160008581526020019081526020016000206111b090919063ffffffff16565b505050565b61179c8282612252565b6117c1816001600085815260200190815260200160002061233390919063ffffffff16565b505050565b60006117d182610b46565b90506117df81600084612006565b6117ea6000836112ce565b6001600560008373ffffffffffffffffffffffffffffffffffffffff1673ffffffffffffffffffffffffffffffffffffffff168152602001908152602001600020600082825461183a9190613c7a565b925050819055506004600083815260200190815260200160002060006101000a81549073ffffffffffffffffffffffffffffffffffffffff021916905581600073ffffffffffffffffffffffffffffffffffffffff168273ffffffffffffffffffffffffffffffffffffffff167fddf252ad1be2c89b69c2b068fc378daa952ba7f163c4a11628f55a4df523b3ef60405160405180910390a45050565b600081600001549050919050565b600073ffffffffffffffffffffffffffffffffffffffff168273ffffffffffffffffffffffffffffffffffffffff161415611955576040517f08c379a000000000000000000000000000000000000000000000000000000000815260040161194c90613e22565b60405180910390fd5b61195e8161125a565b1561199e576040517f08c379a000000000000000000000000000000000000000000000000000000000815260040161199590613e8e565b60405180910390fd5b6119aa60008383612006565b6001600560008473ffffffffffffffffffffffffffffffffffffffff1673ffffffffffffffffffffffffffffffffffffffff16815260200190815260200160002060008282546119fa9190613cae565b92505081905550816004600083815260200190815260200160002060006101000a81548173ffffffffffffffffffffffffffffffffffffffff021916908373ffffffffffffffffffffffffffffffffffffffff160217905550808273ffffffffffffffffffffffffffffffffffffffff16600073ffffffffffffffffffffffffffffffffffffffff167fddf252ad1be2c89b69c2b068fc378daa952ba7f163c4a11628f55a4df523b3ef60405160405180910390a45050565b6001816000016000828254019250508190555050565b6000611ad88360000183612363565b60001c905092915050565b8173ffffffffffffffffffffffffffffffffffffffff168373ffffffffffffffffffffffffffffffffffffffff161415611b52576040517f08c379a0000000000000000000000000000000000000000000000000000000008152600401611b4990613efa565b60405180910390fd5b80600760008573ffffffffffffffffffffffffffffffffffffffff1673ffffffffffffffffffffffffffffffffffffffff16815260200190815260200160002060008473ffffffffffffffffffffffffffffffffffffffff1673ffffffffffffffffffffffffffffffffffffffff16815260200190815260200160002060006101000a81548160ff0219169083151502179055508173ffffffffffffffffffffffffffffffffffffffff168373ffffffffffffffffffffffffffffffffffffffff167f17307eab39ab6107e8899845ad3d59bd9653f200f220920489ca2b5937696c3183604051611c439190612cb1565b60405180910390a3505050565b611c5b848484611465565b611c678484848461238e565b611ca6576040517f08c379a0000000000000000000000000000000000000000000000000000000008152600401611c9d90613f8c565b60405180910390fd5b50505050565b6060600d8054611cbb906132fc565b80601f0160208091040260200160405190810160405280929190818152602001828054611ce7906132fc565b8015611d345780601f10611d0957610100808354040283529160200191611d34565b820191906000526020600020905b815481529060010190602001808311611d1757829003601f168201915b5050505050905090565b60606000821415611d86576040518060400160405280600181526020017f30000000000000000000000000000000000000000000000000000000000000008152509050611e9a565b600082905060005b60008214611db8578080611da190613fac565b915050600a82611db19190614024565b9150611d8e565b60008167ffffffffffffffff811115611dd457611dd36130df565b5b6040519080825280601f01601f191660200182016040528015611e065781602001600182028036833780820191505090505b5090505b60008514611e9357600182611e1f9190613c7a565b9150600a85611e2e9190614055565b6030611e3a9190613cae565b60f81b818381518110611e5057611e4f6137be565b5b60200101907effffffffffffffffffffffffffffffffffffffffffffffffffffffffffffff1916908160001a905350600a85611e8c9190614024565b9450611e0a565b8093505050505b919050565b6000611ead82600001612525565b9050919050565b6000611ec08383612536565b611f19578260000182908060018154018082558091505060019003906000526020600020016000909190919091505582600001805490508360010160008481526020019081526020016000208190555060019050611f1e565b600090505b92915050565b60007f80ac58cd000000000000000000000000000000000000000000000000000000007bffffffffffffffffffffffffffffffffffffffffffffffffffffffff1916827bffffffffffffffffffffffffffffffffffffffffffffffffffffffff19161480611fef57507f5b5e139f000000000000000000000000000000000000000000000000000000007bffffffffffffffffffffffffffffffffffffffffffffffffffffffff1916827bffffffffffffffffffffffffffffffffffffffffffffffffffffffff1916145b80611fff5750611ffe82612559565b5b9050919050565b6120118383836125d3565b505050565b6060600060028360026120299190614086565b6120339190613cae565b67ffffffffffffffff81111561204c5761204b6130df565b5b6040519080825280601f01601f19166020018201604052801561207e5781602001600182028036833780820191505090505b5090507f3000000000000000000000000000000000000000000000000000000000000000816000815181106120b6576120b56137be565b5b60200101907effffffffffffffffffffffffffffffffffffffffffffffffffffffffffffff1916908160001a9053507f78000000000000000000000000000000000000000000000000000000000000008160018151811061211a576121196137be565b5b60200101907effffffffffffffffffffffffffffffffffffffffffffffffffffffffffffff1916908160001a9053506000600184600261215a9190614086565b6121649190613cae565b90505b6001811115612204577f3031323334353637383961626364656600000000000000000000000000000000600f8616601081106121a6576121a56137be565b5b1a60f81b8282815181106121bd576121bc6137be565b5b60200101907effffffffffffffffffffffffffffffffffffffffffffffffffffffffffffff1916908160001a905350600485901c9450806121fd906140e0565b9050612167565b5060008414612248576040517f08c379a000000000000000000000000000000000000000000000000000000000815260040161223f90614156565b60405180910390fd5b8091505092915050565b61225c8282610da9565b1561232f57600080600084815260200190815260200160002060000160008373ffffffffffffffffffffffffffffffffffffffff1673ffffffffffffffffffffffffffffffffffffffff16815260200190815260200160002060006101000a81548160ff0219169083151502179055506122d46112c6565b73ffffffffffffffffffffffffffffffffffffffff168173ffffffffffffffffffffffffffffffffffffffff16837ff6391f5c32d9c69d2a47ea670b442974b53935d1edc7fd64eb21e047a839171b60405160405180910390a45b5050565b600061235b836000018373ffffffffffffffffffffffffffffffffffffffff1660001b6126e7565b905092915050565b600082600001828154811061237b5761237a6137be565b5b9060005260206000200154905092915050565b60006123af8473ffffffffffffffffffffffffffffffffffffffff166127fb565b15612518578373ffffffffffffffffffffffffffffffffffffffff1663150b7a026123d86112c6565b8786866040518563ffffffff1660e01b81526004016123fa94939291906141cb565b602060405180830381600087803b15801561241457600080fd5b505af192505050801561244557506040513d601f19601f82011682018060405250810190612442919061422c565b60015b6124c8573d8060008114612475576040519150601f19603f3d011682016040523d82523d6000602084013e61247a565b606091505b506000815114156124c0576040517f08c379a00000000000000000000000000000000000000000000000000000000081526004016124b790613f8c565b60405180910390fd5b805181602001fd5b63150b7a0260e01b7bffffffffffffffffffffffffffffffffffffffffffffffffffffffff1916817bffffffffffffffffffffffffffffffffffffffffffffffffffffffff19161491505061251d565b600190505b949350505050565b600081600001805490509050919050565b600080836001016000848152602001908152602001600020541415905092915050565b60007f5a05180f000000000000000000000000000000000000000000000000000000007bffffffffffffffffffffffffffffffffffffffffffffffffffffffff1916827bffffffffffffffffffffffffffffffffffffffffffffffffffffffff191614806125cc57506125cb8261280e565b5b9050919050565b6125de838383612888565b600073ffffffffffffffffffffffffffffffffffffffff168373ffffffffffffffffffffffffffffffffffffffff1614156126215761261c8161288d565b612660565b8173ffffffffffffffffffffffffffffffffffffffff168373ffffffffffffffffffffffffffffffffffffffff161461265f5761265e83826128d6565b5b5b600073ffffffffffffffffffffffffffffffffffffffff168273ffffffffffffffffffffffffffffffffffffffff1614156126a35761269e81612a43565b6126e2565b8273ffffffffffffffffffffffffffffffffffffffff168273ffffffffffffffffffffffffffffffffffffffff16146126e1576126e08282612b14565b5b5b505050565b600080836001016000848152602001908152602001600020549050600081146127ef5760006001826127199190613c7a565b90506000600186600001805490506127319190613c7a565b90508181146127a0576000866000018281548110612752576127516137be565b5b9060005260206000200154905080876000018481548110612776576127756137be565b5b90600052602060002001819055508387600101600083815260200190815260200160002081905550505b856000018054806127b4576127b3614259565b5b6001900381819060005260206000200160009055905585600101600086815260200190815260200160002060009055600193505050506127f5565b60009150505b92915050565b600080823b905060008111915050919050565b60007f7965db0b000000000000000000000000000000000000000000000000000000007bffffffffffffffffffffffffffffffffffffffffffffffffffffffff1916827bffffffffffffffffffffffffffffffffffffffffffffffffffffffff19161480612881575061288082612b93565b5b9050919050565b505050565b600a80549050600b600083815260200190815260200160002081905550600a81908060018154018082558091505060019003906000526020600020016000909190919091505550565b600060016128e384610cc2565b6128ed9190613c7a565b90506000600960008481526020019081526020016000205490508181146129d2576000600860008673ffffffffffffffffffffffffffffffffffffffff1673ffffffffffffffffffffffffffffffffffffffff168152602001908152602001600020600084815260200190815260200160002054905080600860008773ffffffffffffffffffffffffffffffffffffffff1673ffffffffffffffffffffffffffffffffffffffff168152602001908152602001600020600084815260200190815260200160002081905550816009600083815260200190815260200160002081905550505b6009600084815260200190815260200160002060009055600860008573ffffffffffffffffffffffffffffffffffffffff1673ffffffffffffffffffffffffffffffffffffffff16815260200190815260200160002060008381526020019081526020016000206000905550505050565b60006001600a80549050612a579190613c7a565b90506000600b60008481526020019081526020016000205490506000600a8381548110612a8757612a866137be565b5b9060005260206000200154905080600a8381548110612aa957612aa86137be565b5b906000526020600020018190555081600b600083815260200190815260200160002081905550600b600085815260200190815260200160002060009055600a805480612af857612af7614259565b5b6001900381819060005260206000200160009055905550505050565b6000612b1f83610cc2565b905081600860008573ffffffffffffffffffffffffffffffffffffffff1673ffffffffffffffffffffffffffffffffffffffff168152602001908152602001600020600083815260200190815260200160002081905550806009600084815260200190815260200160002081905550505050565b60007f01ffc9a7000000000000000000000000000000000000000000000000000000007bffffffffffffffffffffffffffffffffffffffffffffffffffffffff1916827bffffffffffffffffffffffffffffffffffffffffffffffffffffffff1916149050919050565b6000604051905090565b600080fd5b600080fd5b60007fffffffff0000000000000000000000000000000000000000000000000000000082169050919050565b612c4681612c11565b8114612c5157600080fd5b50565b600081359050612c6381612c3d565b92915050565b600060208284031215612c7f57612c7e612c07565b5b6000612c8d84828501612c54565b91505092915050565b60008115159050919050565b612cab81612c96565b82525050565b6000602082019050612cc66000830184612ca2565b92915050565b600081519050919050565b600082825260208201905092915050565b60005b83811015612d06578082015181840152602081019050612ceb565b83811115612d15576000848401525b50505050565b6000601f19601f8301169050919050565b6000612d3782612ccc565b612d418185612cd7565b9350612d51818560208601612ce8565b612d5a81612d1b565b840191505092915050565b60006020820190508181036000830152612d7f8184612d2c565b905092915050565b6000819050919050565b612d9a81612d87565b8114612da557600080fd5b50565b600081359050612db781612d91565b92915050565b600060208284031215612dd357612dd2612c07565b5b6000612de184828501612da8565b91505092915050565b600073ffffffffffffffffffffffffffffffffffffffff82169050919050565b6000612e1582612dea565b9050919050565b612e2581612e0a565b82525050565b6000602082019050612e406000830184612e1c565b92915050565b612e4f81612e0a565b8114612e5a57600080fd5b50565b600081359050612e6c81612e46565b92915050565b60008060408385031215612e8957612e88612c07565b5b6000612e9785828601612e5d565b9250506020612ea885828601612da8565b9150509250929050565b612ebb81612d87565b82525050565b6000602082019050612ed66000830184612eb2565b92915050565b600080600060608486031215612ef557612ef4612c07565b5b6000612f0386828701612e5d565b9350506020612f1486828701612e5d565b9250506040612f2586828701612da8565b9150509250925092565b6000819050919050565b612f4281612f2f565b8114612f4d57600080fd5b50565b600081359050612f5f81612f39565b92915050565b600060208284031215612f7b57612f7a612c07565b5b6000612f8984828501612f50565b91505092915050565b612f9b81612f2f565b82525050565b6000602082019050612fb66000830184612f92565b92915050565b60008060408385031215612fd357612fd2612c07565b5b6000612fe185828601612f50565b9250506020612ff285828601612e5d565b9150509250929050565b60006020828403121561301257613011612c07565b5b600061302084828501612e5d565b91505092915050565b600080604083850312156130405761303f612c07565b5b600061304e85828601612f50565b925050602061305f85828601612da8565b9150509250929050565b61307281612c96565b811461307d57600080fd5b50565b60008135905061308f81613069565b92915050565b600080604083850312156130ac576130ab612c07565b5b60006130ba85828601612e5d565b92505060206130cb85828601613080565b9150509250929050565b600080fd5b600080fd5b7f4e487b7100000000000000000000000000000000000000000000000000000000600052604160045260246000fd5b61311782612d1b565b810181811067ffffffffffffffff82111715613136576131356130df565b5b80604052505050565b6000613149612bfd565b9050613155828261310e565b919050565b600067ffffffffffffffff821115613175576131746130df565b5b61317e82612d1b565b9050602081019050919050565b82818337600083830152505050565b60006131ad6131a88461315a565b61313f565b9050828152602081018484840111156131c9576131c86130da565b5b6131d484828561318b565b509392505050565b600082601f8301126131f1576131f06130d5565b5b813561320184826020860161319a565b91505092915050565b6000806000806080858703121561322457613223612c07565b5b600061323287828801612e5d565b945050602061324387828801612e5d565b935050604061325487828801612da8565b925050606085013567ffffffffffffffff81111561327557613274612c0c565b5b613281878288016131dc565b91505092959194509250565b600080604083850312156132a4576132a3612c07565b5b60006132b285828601612e5d565b92505060206132c385828601612e5d565b9150509250929050565b7f4e487b7100000000000000000000000000000000000000000000000000000000600052602260045260246000fd5b6000600282049050600182168061331457607f821691505b60208210811415613328576133276132cd565b5b50919050565b7f4552433732313a20617070726f76656420717565727920666f72206e6f6e657860008201527f697374656e7420746f6b656e0000000000000000000000000000000000000000602082015250565b600061338a602c83612cd7565b91506133958261332e565b604082019050919050565b600060208201905081810360008301526133b98161337d565b9050919050565b7f4552433732313a20617070726f76616c20746f2063757272656e74206f776e6560008201527f7200000000000000000000000000000000000000000000000000000000000000602082015250565b600061341c602183612cd7565b9150613427826133c0565b604082019050919050565b6000602082019050818103600083015261344b8161340f565b9050919050565b7f4552433732313a20617070726f76652063616c6c6572206973206e6f74206f7760008201527f6e6572206e6f7220617070726f76656420666f7220616c6c0000000000000000602082015250565b60006134ae603883612cd7565b91506134b982613452565b604082019050919050565b600060208201905081810360008301526134dd816134a1565b9050919050565b7f4552433732313a207472616e736665722063616c6c6572206973206e6f74206f60008201527f776e6572206e6f7220617070726f766564000000000000000000000000000000602082015250565b6000613540603183612cd7565b915061354b826134e4565b604082019050919050565b6000602082019050818103600083015261356f81613533565b9050919050565b7f455243373231456e756d657261626c653a206f776e657220696e646578206f7560008201527f74206f6620626f756e6473000000000000000000000000000000000000000000602082015250565b60006135d2602b83612cd7565b91506135dd82613576565b604082019050919050565b60006020820190508181036000830152613601816135c5565b9050919050565b7f416363657373436f6e74726f6c3a2063616e206f6e6c792072656e6f756e636560008201527f20726f6c657320666f722073656c660000000000000000000000000000000000602082015250565b6000613664602f83612cd7565b915061366f82613608565b604082019050919050565b6000602082019050818103600083015261369381613657565b9050919050565b7f4552433732314275726e61626c653a2063616c6c6572206973206e6f74206f7760008201527f6e6572206e6f7220617070726f76656400000000000000000000000000000000602082015250565b60006136f6603083612cd7565b91506137018261369a565b604082019050919050565b60006020820190508181036000830152613725816136e9565b9050919050565b7f455243373231456e756d657261626c653a20676c6f62616c20696e646578206f60008201527f7574206f6620626f756e64730000000000000000000000000000000000000000602082015250565b6000613788602c83612cd7565b91506137938261372c565b604082019050919050565b600060208201905081810360008301526137b78161377b565b9050919050565b7f4e487b7100000000000000000000000000000000000000000000000000000000600052603260045260246000fd5b7f4552433732313a206f776e657220717565727920666f72206e6f6e657869737460008201527f656e7420746f6b656e0000000000000000000000000000000000000000000000602082015250565b6000613849602983612cd7565b9150613854826137ed565b604082019050919050565b600060208201905081810360008301526138788161383c565b9050919050565b7f4552433732314d696e7461626c654275726e61626c653a206d7573742068617660008201527f65206d696e74657220726f6c6520746f206d696e740000000000000000000000602082015250565b60006138db603583612cd7565b91506138e68261387f565b604082019050919050565b6000602082019050818103600083015261390a816138ce565b9050919050565b7f4552433732313a2062616c616e636520717565727920666f7220746865207a6560008201527f726f206164647265737300000000000000000000000000000000000000000000602082015250565b600061396d602a83612cd7565b915061397882613911565b604082019050919050565b6000602082019050818103600083015261399c81613960565b9050919050565b7f4552433732314d657461646174613a2055524920717565727920666f72206e6f60008201527f6e6578697374656e7420746f6b656e0000000000000000000000000000000000602082015250565b60006139ff602f83612cd7565b9150613a0a826139a3565b604082019050919050565b60006020820190508181036000830152613a2e816139f2565b9050919050565b600081905092915050565b6000613a4b82612ccc565b613a558185613a35565b9350613a65818560208601612ce8565b80840191505092915050565b6000613a7d8285613a40565b9150613a898284613a40565b91508190509392505050565b7f4552433732313a206f70657261746f7220717565727920666f72206e6f6e657860008201527f697374656e7420746f6b656e0000000000000000000000000000000000000000602082015250565b6000613af1602c83612cd7565b9150613afc82613a95565b604082019050919050565b60006020820190508181036000830152613b2081613ae4565b9050919050565b7f4552433732313a207472616e73666572206f6620746f6b656e2074686174206960008201527f73206e6f74206f776e0000000000000000000000000000000000000000000000602082015250565b6000613b83602983612cd7565b9150613b8e82613b27565b604082019050919050565b60006020820190508181036000830152613bb281613b76565b9050919050565b7f4552433732313a207472616e7366657220746f20746865207a65726f2061646460008201527f7265737300000000000000000000000000000000000000000000000000000000602082015250565b6000613c15602483612cd7565b9150613c2082613bb9565b604082019050919050565b60006020820190508181036000830152613c4481613c08565b9050919050565b7f4e487b7100000000000000000000000000000000000000000000000000000000600052601160045260246000fd5b6000613c8582612d87565b9150613c9083612d87565b925082821015613ca357613ca2613c4b565b5b828203905092915050565b6000613cb982612d87565b9150613cc483612d87565b9250827fffffffffffffffffffffffffffffffffffffffffffffffffffffffffffffffff03821115613cf957613cf8613c4b565b5b828201905092915050565b7f416363657373436f6e74726f6c3a206163636f756e7420000000000000000000600082015250565b6000613d3a601783613a35565b9150613d4582613d04565b601782019050919050565b7f206973206d697373696e6720726f6c6520000000000000000000000000000000600082015250565b6000613d86601183613a35565b9150613d9182613d50565b601182019050919050565b6000613da782613d2d565b9150613db38285613a40565b9150613dbe82613d79565b9150613dca8284613a40565b91508190509392505050565b7f4552433732313a206d696e7420746f20746865207a65726f2061646472657373600082015250565b6000613e0c602083612cd7565b9150613e1782613dd6565b602082019050919050565b60006020820190508181036000830152613e3b81613dff565b9050919050565b7f4552433732313a20746f6b656e20616c7265616479206d696e74656400000000600082015250565b6000613e78601c83612cd7565b9150613e8382613e42565b602082019050919050565b60006020820190508181036000830152613ea781613e6b565b9050919050565b7f4552433732313a20617070726f766520746f2063616c6c657200000000000000600082015250565b6000613ee4601983612cd7565b9150613eef82613eae565b602082019050919050565b60006020820190508181036000830152613f1381613ed7565b9050919050565b7f4552433732313a207472616e7366657220746f206e6f6e20455243373231526560008201527f63656976657220696d706c656d656e7465720000000000000000000000000000602082015250565b6000613f76603283612cd7565b9150613f8182613f1a565b604082019050919050565b60006020820190508181036000830152613fa581613f69565b9050919050565b6000613fb782612d87565b91507fffffffffffffffffffffffffffffffffffffffffffffffffffffffffffffffff821415613fea57613fe9613c4b565b5b600182019050919050565b7f4e487b7100000000000000000000000000000000000000000000000000000000600052601260045260246000fd5b600061402f82612d87565b915061403a83612d87565b92508261404a57614049613ff5565b5b828204905092915050565b600061406082612d87565b915061406b83612d87565b92508261407b5761407a613ff5565b5b828206905092915050565b600061409182612d87565b915061409c83612d87565b9250817fffffffffffffffffffffffffffffffffffffffffffffffffffffffffffffffff04831182151516156140d5576140d4613c4b565b5b828202905092915050565b60006140eb82612d87565b915060008214156140ff576140fe613c4b565b5b600182039050919050565b7f537472696e67733a20686578206c656e67746820696e73756666696369656e74600082015250565b6000614140602083612cd7565b915061414b8261410a565b602082019050919050565b6000602082019050818103600083015261416f81614133565b9050919050565b600081519050919050565b600082825260208201905092915050565b600061419d82614176565b6141a78185614181565b93506141b7818560208601612ce8565b6141c081612d1b565b840191505092915050565b60006080820190506141e06000830187612e1c565b6141ed6020830186612e1c565b6141fa6040830185612eb2565b818103606083015261420c8184614192565b905095945050505050565b60008151905061422681612c3d565b92915050565b60006020828403121561424257614241612c07565b5b600061425084828501614217565b91505092915050565b7f4e487b7100000000000000000000000000000000000000000000000000000000600052603160045260246000fdfea26469706673582212201a340da56cc20a26d65da2b0b4a6d89d43339c54e068540b56281d6e179d012c64736f6c63430008090033",
  "immutableReferences": {},
  "source": "// SPDX-License-Identifier: MIT\r\n// OpenZeppelin Contracts v4.4.0 (token/ERC721/presets/ERC721PresetMinterPauserAutoId.sol)\r\n\r\npragma solidity ^0.8.0;\r\n\r\nimport \"@openzeppelin/contracts/token/ERC721/ERC721.sol\";\r\nimport \"@openzeppelin/contracts/token/ERC721/extensions/ERC721Enumerable.sol\";\r\nimport \"@openzeppelin/contracts/token/ERC721/extensions/ERC721Burnable.sol\";\r\nimport \"@openzeppelin/contracts/access/AccessControlEnumerable.sol\";\r\nimport \"@openzeppelin/contracts/utils/Context.sol\";\r\nimport \"@openzeppelin/contracts/utils/Counters.sol\";\r\n\r\n/**\r\n * @dev {ERC721} token, including:\r\n *\r\n *  - ability for holders to burn (destroy) their tokens\r\n *  - a minter role that allows for token minting (creation)\r\n *  - a pauser role that allows to stop all token transfers\r\n *  - token ID and URI autogeneration\r\n *\r\n * This contract uses {AccessControl} to lock permissioned functions using the\r\n * different roles - head to its documentation for details.\r\n *\r\n * The account that deploys the contract will be granted the minter and pauser\r\n * roles, as well as the default admin role, which will let it grant both minter\r\n * and pauser roles to other accounts.\r\n */\r\ncontract ERC721MintableBurnable is\r\n    Context,\r\n    AccessControlEnumerable,\r\n    ERC721Enumerable,\r\n    ERC721Burnable\r\n{\r\n    using Counters for Counters.Counter;\r\n\r\n    bytes32 public constant MINTER_ROLE = keccak256(\"MINTER_ROLE\");\r\n\r\n    Counters.Counter private _tokenIdTracker;\r\n\r\n    string private _baseTokenURI;\r\n\r\n    /**\r\n     * @dev Grants `DEFAULT_ADMIN_ROLE`, `MINTER_ROLE` and `PAUSER_ROLE` to the\r\n     * account that deploys the contract.\r\n     *\r\n     * Token URIs will be autogenerated based on `baseURI` and their token IDs.\r\n     * See {ERC721-tokenURI}.\r\n     */\r\n    constructor(\r\n        string memory name,\r\n        string memory symbol,\r\n        string memory baseTokenURI\r\n    ) ERC721(name, symbol) {\r\n        _baseTokenURI = baseTokenURI;\r\n\r\n        _setupRole(DEFAULT_ADMIN_ROLE, _msgSender());\r\n\r\n        _setupRole(MINTER_ROLE, _msgSender());\r\n    }\r\n\r\n    function _baseURI() internal view virtual override returns (string memory) {\r\n        return _baseTokenURI;\r\n    }\r\n\r\n    /**\r\n     * @dev Creates a new token for `to`. Its token ID will be automatically\r\n     * assigned (and available on the emitted {IERC721-Transfer} event), and the token\r\n     * URI autogenerated based on the base URI passed at construction.\r\n     *\r\n     * See {ERC721-_mint}.\r\n     *\r\n     * Requirements:\r\n     *\r\n     * - the caller must have the `MINTER_ROLE`.\r\n     */\r\n    function mint(address to) public virtual returns(uint256){\r\n        require(hasRole(MINTER_ROLE, _msgSender()), \"ERC721MintableBurnable: must have minter role to mint\");\r\n\r\n        // We cannot just use balanceOf to create the new tokenId because tokens\r\n        // can be burned (destroyed), so we need a separate counter.\r\n        uint256 tokenId = _tokenIdTracker.current();\r\n        _mint(to, tokenId);\r\n        _tokenIdTracker.increment();\r\n        return tokenId;\r\n    }\r\n\r\n    function grantMinterRole(address newMinter) public virtual{\r\n        grantRole(MINTER_ROLE, newMinter);\r\n    }\r\n\r\n    function revokeMinterRole(address Minter) public virtual{\r\n        revokeRole(MINTER_ROLE, Minter);\r\n    }\r\n\r\n\r\n\r\n\r\n    function _beforeTokenTransfer(\r\n        address from,\r\n        address to,\r\n        uint256 tokenId\r\n    ) internal virtual override(ERC721, ERC721Enumerable) {\r\n        super._beforeTokenTransfer(from, to, tokenId);\r\n    }\r\n\r\n    /**\r\n     * @dev See {IERC165-supportsInterface}.\r\n     */\r\n    function supportsInterface(bytes4 interfaceId)\r\n        public\r\n        view\r\n        virtual\r\n        override(AccessControlEnumerable, ERC721, ERC721Enumerable)\r\n        returns (bool)\r\n    {\r\n        return super.supportsInterface(interfaceId);\r\n    }\r\n}\r\n",
  "sourcePath": "C:\\Users\\fenik\\OneDrive\\Documents\\Hunga\\NFTProject\\contracts\\ERC721MintableBurnable.sol",
  "compiler": {
    "name": "solc",
    "version": "0.8.9+commit.e5eed63a.Emscripten.clang"
  },
  "schemaVersion": "3.4.3",
  "updatedAt": "2021-12-09T21:57:31.985Z",
  "devdoc": {
    "details": "{ERC721} token, including:  - ability for holders to burn (destroy) their tokens  - a minter role that allows for token minting (creation)  - a pauser role that allows to stop all token transfers  - token ID and URI autogeneration This contract uses {AccessControl} to lock permissioned functions using the different roles - head to its documentation for details. The account that deploys the contract will be granted the minter and pauser roles, as well as the default admin role, which will let it grant both minter and pauser roles to other accounts.",
    "kind": "dev",
    "methods": {
      "approve(address,uint256)": {
        "details": "See {IERC721-approve}."
      },
      "balanceOf(address)": {
        "details": "See {IERC721-balanceOf}."
      },
      "burn(uint256)": {
        "details": "Burns `tokenId`. See {ERC721-_burn}. Requirements: - The caller must own `tokenId` or be an approved operator."
      },
      "constructor": {
        "details": "Grants `DEFAULT_ADMIN_ROLE`, `MINTER_ROLE` and `PAUSER_ROLE` to the account that deploys the contract. Token URIs will be autogenerated based on `baseURI` and their token IDs. See {ERC721-tokenURI}."
      },
      "getApproved(uint256)": {
        "details": "See {IERC721-getApproved}."
      },
      "getRoleAdmin(bytes32)": {
        "details": "Returns the admin role that controls `role`. See {grantRole} and {revokeRole}. To change a role's admin, use {_setRoleAdmin}."
      },
      "getRoleMember(bytes32,uint256)": {
        "details": "Returns one of the accounts that have `role`. `index` must be a value between 0 and {getRoleMemberCount}, non-inclusive. Role bearers are not sorted in any particular way, and their ordering may change at any point. WARNING: When using {getRoleMember} and {getRoleMemberCount}, make sure you perform all queries on the same block. See the following https://forum.openzeppelin.com/t/iterating-over-elements-on-enumerableset-in-openzeppelin-contracts/2296[forum post] for more information."
      },
      "getRoleMemberCount(bytes32)": {
        "details": "Returns the number of accounts that have `role`. Can be used together with {getRoleMember} to enumerate all bearers of a role."
      },
      "grantRole(bytes32,address)": {
        "details": "Grants `role` to `account`. If `account` had not been already granted `role`, emits a {RoleGranted} event. Requirements: - the caller must have ``role``'s admin role."
      },
      "hasRole(bytes32,address)": {
        "details": "Returns `true` if `account` has been granted `role`."
      },
      "isApprovedForAll(address,address)": {
        "details": "See {IERC721-isApprovedForAll}."
      },
      "mint(address)": {
        "details": "Creates a new token for `to`. Its token ID will be automatically assigned (and available on the emitted {IERC721-Transfer} event), and the token URI autogenerated based on the base URI passed at construction. See {ERC721-_mint}. Requirements: - the caller must have the `MINTER_ROLE`."
      },
      "name()": {
        "details": "See {IERC721Metadata-name}."
      },
      "ownerOf(uint256)": {
        "details": "See {IERC721-ownerOf}."
      },
      "renounceRole(bytes32,address)": {
        "details": "Revokes `role` from the calling account. Roles are often managed via {grantRole} and {revokeRole}: this function's purpose is to provide a mechanism for accounts to lose their privileges if they are compromised (such as when a trusted device is misplaced). If the calling account had been revoked `role`, emits a {RoleRevoked} event. Requirements: - the caller must be `account`."
      },
      "revokeRole(bytes32,address)": {
        "details": "Revokes `role` from `account`. If `account` had been granted `role`, emits a {RoleRevoked} event. Requirements: - the caller must have ``role``'s admin role."
      },
      "safeTransferFrom(address,address,uint256)": {
        "details": "See {IERC721-safeTransferFrom}."
      },
      "safeTransferFrom(address,address,uint256,bytes)": {
        "details": "See {IERC721-safeTransferFrom}."
      },
      "setApprovalForAll(address,bool)": {
        "details": "See {IERC721-setApprovalForAll}."
      },
      "supportsInterface(bytes4)": {
        "details": "See {IERC165-supportsInterface}."
      },
      "symbol()": {
        "details": "See {IERC721Metadata-symbol}."
      },
      "tokenByIndex(uint256)": {
        "details": "See {IERC721Enumerable-tokenByIndex}."
      },
      "tokenOfOwnerByIndex(address,uint256)": {
        "details": "See {IERC721Enumerable-tokenOfOwnerByIndex}."
      },
      "tokenURI(uint256)": {
        "details": "See {IERC721Metadata-tokenURI}."
      },
      "totalSupply()": {
        "details": "See {IERC721Enumerable-totalSupply}."
      },
      "transferFrom(address,address,uint256)": {
        "details": "See {IERC721-transferFrom}."
      }
    },
    "version": 1
  },
  "userdoc": {
    "kind": "user",
    "methods": {},
    "version": 1
  }
}