{
  "contractName": "GetNFT",
  "abi": [
    {
      "inputs": [
        {
          "internalType": "address",
          "name": "ft",
          "type": "address"
        },
        {
          "internalType": "address",
          "name": "nft",
          "type": "address"
        },
        {
          "internalType": "uint256",
          "name": "price",
          "type": "uint256"
        }
      ],
      "stateMutability": "nonpayable",
      "type": "constructor"
    },
    {
      "inputs": [],
      "name": "claimNFT",
      "outputs": [
        {
          "internalType": "uint256",
          "name": "",
          "type": "uint256"
        }
      ],
      "stateMutability": "nonpayable",
      "type": "function"
    }
  ],
  "bytecode": "0x608060405234801561001057600080fd5b506040516109393803806109398339818101604052810190610032919061015b565b826000806101000a81548173ffffffffffffffffffffffffffffffffffffffff021916908373ffffffffffffffffffffffffffffffffffffffff16021790555081600160006101000a81548173ffffffffffffffffffffffffffffffffffffffff021916908373ffffffffffffffffffffffffffffffffffffffff160217905550806002819055505050506101ae565b600080fd5b600073ffffffffffffffffffffffffffffffffffffffff82169050919050565b60006100f2826100c7565b9050919050565b610102816100e7565b811461010d57600080fd5b50565b60008151905061011f816100f9565b92915050565b6000819050919050565b61013881610125565b811461014357600080fd5b50565b6000815190506101558161012f565b92915050565b600080600060608486031215610174576101736100c2565b5b600061018286828701610110565b935050602061019386828701610110565b92505060406101a486828701610146565b9150509250925092565b61077c806101bd6000396000f3fe608060405234801561001057600080fd5b506004361061002b5760003560e01c8063672756ad14610030575b600080fd5b61003861004e565b604051610045919061040b565b60405180910390f35b600060025460008054906101000a900473ffffffffffffffffffffffffffffffffffffffff1673ffffffffffffffffffffffffffffffffffffffff166370a082316100976103ea565b6040518263ffffffff1660e01b81526004016100b39190610467565b60206040518083038186803b1580156100cb57600080fd5b505afa1580156100df573d6000803e3d6000fd5b505050506040513d601f19601f8201168201806040525081019061010391906104b3565b1015610144576040517f08c379a000000000000000000000000000000000000000000000000000000000815260040161013b9061053d565b60405180910390fd5b60025460008054906101000a900473ffffffffffffffffffffffffffffffffffffffff1673ffffffffffffffffffffffffffffffffffffffff1663dd62ed3e61018b6103ea565b306040518363ffffffff1660e01b81526004016101a992919061055d565b60206040518083038186803b1580156101c157600080fd5b505afa1580156101d5573d6000803e3d6000fd5b505050506040513d601f19601f820116820180604052508101906101f991906104b3565b101561023a576040517f08c379a00000000000000000000000000000000000000000000000000000000081526004016102319061061e565b60405180910390fd5b60008054906101000a900473ffffffffffffffffffffffffffffffffffffffff1673ffffffffffffffffffffffffffffffffffffffff166323b872dd61027e6103ea565b306002546040518463ffffffff1660e01b81526004016102a09392919061063e565b602060405180830381600087803b1580156102ba57600080fd5b505af11580156102ce573d6000803e3d6000fd5b505050506040513d601f19601f820116820180604052508101906102f291906106ad565b610331576040517f08c379a000000000000000000000000000000000000000000000000000000000815260040161032890610726565b60405180910390fd5b600160009054906101000a900473ffffffffffffffffffffffffffffffffffffffff1673ffffffffffffffffffffffffffffffffffffffff16636a6278426103776103ea565b6040518263ffffffff1660e01b81526004016103939190610467565b602060405180830381600087803b1580156103ad57600080fd5b505af11580156103c1573d6000803e3d6000fd5b505050506040513d601f19601f820116820180604052508101906103e591906104b3565b905090565b600033905090565b6000819050919050565b610405816103f2565b82525050565b600060208201905061042060008301846103fc565b92915050565b600073ffffffffffffffffffffffffffffffffffffffff82169050919050565b600061045182610426565b9050919050565b61046181610446565b82525050565b600060208201905061047c6000830184610458565b92915050565b600080fd5b610490816103f2565b811461049b57600080fd5b50565b6000815190506104ad81610487565b92915050565b6000602082840312156104c9576104c8610482565b5b60006104d78482850161049e565b91505092915050565b600082825260208201905092915050565b7f4765744e46543a20556e737566696369656e742066756e647300000000000000600082015250565b60006105276019836104e0565b9150610532826104f1565b602082019050919050565b600060208201905081810360008301526105568161051a565b9050919050565b60006040820190506105726000830185610458565b61057f6020830184610458565b9392505050565b7f4765744e46543a205472616e73666572207061796d656e7420776173206e6f7460008201527f20617070726f7665642e20596f75206d75737420417070726f7665207472616e60208201527f73666572206265666f726520636c61696d696e67204e46540000000000000000604082015250565b60006106086058836104e0565b915061061382610586565b606082019050919050565b60006020820190508181036000830152610637816105fb565b9050919050565b60006060820190506106536000830186610458565b6106606020830185610458565b61066d60408301846103fc565b949350505050565b60008115159050919050565b61068a81610675565b811461069557600080fd5b50565b6000815190506106a781610681565b92915050565b6000602082840312156106c3576106c2610482565b5b60006106d184828501610698565b91505092915050565b7f4765744e46543a205472616e73666572207061796d656e74204661696c656400600082015250565b6000610710601f836104e0565b915061071b826106da565b602082019050919050565b6000602082019050818103600083015261073f81610703565b905091905056fea2646970667358221220f92a356bfa63c9ab80c7527d18c809bcfe2108a40d8f358ed24c7827c0897b0264736f6c63430008090033",
  "immutableReferences": {},
  "source": "pragma solidity ^0.8.0;\r\n\r\nimport \"./FungibleToken.sol\";\r\nimport \"./NonFungibleToken.sol\";\r\nimport \"@openzeppelin/contracts/utils/Context.sol\";\r\n\r\n\r\ncontract GetNFT is Context{\r\n\r\n    FungibleToken _ft;\r\n    NonFungibleToken _nft;\r\n\r\n    uint256 _price;\r\n\r\n    constructor(address ft, address nft, uint256 price){\r\n        _ft = FungibleToken(ft);\r\n        _nft = NonFungibleToken(nft);\r\n        _price = price;\r\n    }\r\n\r\n    function claimNFT() public returns(uint256){\r\n        require(_ft.balanceOf(_msgSender()) >= _price, \"GetNFT: Unsuficient funds\");\r\n        require(_ft.allowance(_msgSender(), address(this)) >= _price, \"GetNFT: Transfer payment was not approved. You must Approve transfer before claiming NFT\");\r\n        require(_ft.transferFrom(_msgSender(), address(this), _price), \"GetNFT: Transfer payment Failed\");\r\n        return _nft.mint(_msgSender());// add random genes later\r\n    }\r\n}",
  "sourcePath": "C:\\Users\\fenik\\OneDrive\\Documents\\Hunga\\NFTProject\\contracts\\GetNFT.sol",
  "compiler": {
    "name": "solc",
    "version": "0.8.9+commit.e5eed63a.Emscripten.clang"
  },
  "schemaVersion": "3.4.3",
  "updatedAt": "2021-12-09T22:01:41.910Z",
  "networkType": "ethereum",
  "devdoc": {
    "kind": "dev",
    "methods": {},
    "version": 1
  },
  "userdoc": {
    "kind": "user",
    "methods": {},
    "version": 1
  }
}