{
  "contractName": "NFTGame",
  "abi": [
    {
      "inputs": [
        {
          "internalType": "address",
          "name": "ft",
          "type": "address"
        },
        {
          "internalType": "address",
          "name": "nft",
          "type": "address"
        }
      ],
      "stateMutability": "nonpayable",
      "type": "constructor"
    },
    {
      "anonymous": false,
      "inputs": [
        {
          "indexed": false,
          "internalType": "uint256",
          "name": "_tokenId",
          "type": "uint256"
        }
      ],
      "name": "FailedClaim",
      "type": "event"
    },
    {
      "anonymous": false,
      "inputs": [
        {
          "indexed": false,
          "internalType": "uint256",
          "name": "_tokenId",
          "type": "uint256"
        },
        {
          "indexed": false,
          "internalType": "uint256",
          "name": "_reward",
          "type": "uint256"
        }
      ],
      "name": "SuccesfulClaim",
      "type": "event"
    },
    {
      "inputs": [],
      "name": "pseudoRNG",
      "outputs": [
        {
          "internalType": "uint256",
          "name": "",
          "type": "uint256"
        }
      ],
      "stateMutability": "nonpayable",
      "type": "function"
    },
    {
      "inputs": [
        {
          "internalType": "uint256",
          "name": "tokenId",
          "type": "uint256"
        }
      ],
      "name": "claimReward",
      "outputs": [
        {
          "internalType": "uint256",
          "name": "",
          "type": "uint256"
        }
      ],
      "stateMutability": "nonpayable",
      "type": "function"
    }
  ],
  "bytecode": "0x60806040523480156200001157600080fd5b5060405162000f2838038062000f2883398181016040528101906200003791906200012a565b816000806101000a81548173ffffffffffffffffffffffffffffffffffffffff021916908373ffffffffffffffffffffffffffffffffffffffff16021790555080600160006101000a81548173ffffffffffffffffffffffffffffffffffffffff021916908373ffffffffffffffffffffffffffffffffffffffff160217905550505062000171565b600080fd5b600073ffffffffffffffffffffffffffffffffffffffff82169050919050565b6000620000f282620000c5565b9050919050565b6200010481620000e5565b81146200011057600080fd5b50565b6000815190506200012481620000f9565b92915050565b60008060408385031215620001445762000143620000c0565b5b6000620001548582860162000113565b9250506020620001678582860162000113565b9150509250929050565b610da780620001816000396000f3fe608060405234801561001057600080fd5b50600436106100365760003560e01c806375b7b1aa1461003b578063ae169a5014610059575b600080fd5b610043610089565b60405161005091906107ee565b60405180910390f35b610073600480360381019061006e919061083a565b6100e5565b60405161008091906107ee565b60405180910390f35b60006002600081548092919061009e90610896565b9190505550600254336001436100b491906108df565b406040516020016100c7939291906109d9565b6040516020818303038152906040528051906020012060001c905090565b60006100ef6107cd565b73ffffffffffffffffffffffffffffffffffffffff16600160009054906101000a900473ffffffffffffffffffffffffffffffffffffffff1673ffffffffffffffffffffffffffffffffffffffff16636352211e846040518263ffffffff1660e01b815260040161016091906107ee565b60206040518083038186803b15801561017857600080fd5b505afa15801561018c573d6000803e3d6000fd5b505050506040513d601f19601f820116820180604052508101906101b09190610a42565b73ffffffffffffffffffffffffffffffffffffffff1614610206576040517f08c379a00000000000000000000000000000000000000000000000000000000081526004016101fd90610acc565b60405180910390fd5b3073ffffffffffffffffffffffffffffffffffffffff16600160009054906101000a900473ffffffffffffffffffffffffffffffffffffffff1673ffffffffffffffffffffffffffffffffffffffff1663081812fc846040518263ffffffff1660e01b815260040161027891906107ee565b60206040518083038186803b15801561029057600080fd5b505afa1580156102a4573d6000803e3d6000fd5b505050506040513d601f19601f820116820180604052508101906102c89190610a42565b73ffffffffffffffffffffffffffffffffffffffff161461031e576040517f08c379a000000000000000000000000000000000000000000000000000000000815260040161031590610b5e565b60405180910390fd5b6000606461032a610089565b6103349190610bad565b90506000600160009054906101000a900473ffffffffffffffffffffffffffffffffffffffff1673ffffffffffffffffffffffffffffffffffffffff1663e8805072856040518263ffffffff1660e01b815260040161039391906107ee565b60206040518083038186803b1580156103ab57600080fd5b505afa1580156103bf573d6000803e3d6000fd5b505050506040513d601f19601f820116820180604052508101906103e39190610bf3565b90508082116106fd576000600a6009836103fd9190610c20565b6104079190610c7a565b9050600160009054906101000a900473ffffffffffffffffffffffffffffffffffffffff1673ffffffffffffffffffffffffffffffffffffffff166320c709cf86836040518363ffffffff1660e01b8152600401610466929190610cab565b602060405180830381600087803b15801561048057600080fd5b505af1158015610494573d6000803e3d6000fd5b505050506040513d601f19601f820116820180604052508101906104b89190610d0c565b506000600160009054906101000a900473ffffffffffffffffffffffffffffffffffffffff1673ffffffffffffffffffffffffffffffffffffffff1663322b8885876040518263ffffffff1660e01b815260040161051691906107ee565b60206040518083038186803b15801561052e57600080fd5b505afa158015610542573d6000803e3d6000fd5b505050506040513d601f19601f820116820180604052508101906105669190610bf3565b905060008054906101000a900473ffffffffffffffffffffffffffffffffffffffff1673ffffffffffffffffffffffffffffffffffffffff166340c10f196105ac6107cd565b836040518363ffffffff1660e01b81526004016105ca929190610d48565b600060405180830381600087803b1580156105e457600080fd5b505af11580156105f8573d6000803e3d6000fd5b50505050600160009054906101000a900473ffffffffffffffffffffffffffffffffffffffff1673ffffffffffffffffffffffffffffffffffffffff166332a6910187838061064690610896565b94506040518363ffffffff1660e01b8152600401610665929190610cab565b602060405180830381600087803b15801561067f57600080fd5b505af1158015610693573d6000803e3d6000fd5b505050506040513d601f19601f820116820180604052508101906106b79190610d0c565b507fc051b0313c3ae48e72c6df32a82fd868fc543da84ee8c15cf58641db3bf0e62386826040516106e9929190610cab565b60405180910390a1809450505050506107c8565b600160009054906101000a900473ffffffffffffffffffffffffffffffffffffffff1673ffffffffffffffffffffffffffffffffffffffff166342966c68856040518263ffffffff1660e01b815260040161075891906107ee565b600060405180830381600087803b15801561077257600080fd5b505af1158015610786573d6000803e3d6000fd5b505050507fe1fea2e5a4bb079d43b0c83d4653c2ed602fda48b4541b8707793e2bceb41c9f846040516107b991906107ee565b60405180910390a16000925050505b919050565b600033905090565b6000819050919050565b6107e8816107d5565b82525050565b600060208201905061080360008301846107df565b92915050565b600080fd5b610817816107d5565b811461082257600080fd5b50565b6000813590506108348161080e565b92915050565b6000602082840312156108505761084f610809565b5b600061085e84828501610825565b91505092915050565b7f4e487b7100000000000000000000000000000000000000000000000000000000600052601160045260246000fd5b60006108a1826107d5565b91507fffffffffffffffffffffffffffffffffffffffffffffffffffffffffffffffff8214156108d4576108d3610867565b5b600182019050919050565b60006108ea826107d5565b91506108f5836107d5565b92508282101561090857610907610867565b5b828203905092915050565b6000819050919050565b61092e610929826107d5565b610913565b82525050565b600073ffffffffffffffffffffffffffffffffffffffff82169050919050565b600061095f82610934565b9050919050565b60008160601b9050919050565b600061097e82610966565b9050919050565b600061099082610973565b9050919050565b6109a86109a382610954565b610985565b82525050565b6000819050919050565b6000819050919050565b6109d36109ce826109ae565b6109b8565b82525050565b60006109e5828661091d565b6020820191506109f58285610997565b601482019150610a0582846109c2565b602082019150819050949350505050565b610a1f81610954565b8114610a2a57600080fd5b50565b600081519050610a3c81610a16565b92915050565b600060208284031215610a5857610a57610809565b5b6000610a6684828501610a2d565b91505092915050565b600082825260208201905092915050565b7f4e465447616d653a206e6f74206f776e6572206f66204e465400000000000000600082015250565b6000610ab6601983610a6f565b9150610ac182610a80565b602082019050919050565b60006020820190508181036000830152610ae581610aa9565b9050919050565b7f4e465447616d653a204e4654206e6f7420617070726f7665642c206e6f204e4660008201527f54206174207374616b652e000000000000000000000000000000000000000000602082015250565b6000610b48602b83610a6f565b9150610b5382610aec565b604082019050919050565b60006020820190508181036000830152610b7781610b3b565b9050919050565b7f4e487b7100000000000000000000000000000000000000000000000000000000600052601260045260246000fd5b6000610bb8826107d5565b9150610bc3836107d5565b925082610bd357610bd2610b7e565b5b828206905092915050565b600081519050610bed8161080e565b92915050565b600060208284031215610c0957610c08610809565b5b6000610c1784828501610bde565b91505092915050565b6000610c2b826107d5565b9150610c36836107d5565b9250817fffffffffffffffffffffffffffffffffffffffffffffffffffffffffffffffff0483118215151615610c6f57610c6e610867565b5b828202905092915050565b6000610c85826107d5565b9150610c90836107d5565b925082610ca057610c9f610b7e565b5b828204905092915050565b6000604082019050610cc060008301856107df565b610ccd60208301846107df565b9392505050565b60008115159050919050565b610ce981610cd4565b8114610cf457600080fd5b50565b600081519050610d0681610ce0565b92915050565b600060208284031215610d2257610d21610809565b5b6000610d3084828501610cf7565b91505092915050565b610d4281610954565b82525050565b6000604082019050610d5d6000830185610d39565b610d6a60208301846107df565b939250505056fea2646970667358221220ca86b088ebcfea36deb335eac7a74b919e44dd9a8f573e3728e9f1784686af7864736f6c63430008090033",
  "immutableReferences": {},
  "source": "pragma solidity ^0.8.0;\r\n\r\nimport \"./FungibleToken.sol\";\r\nimport \"./NonFungibleToken.sol\";\r\nimport \"@openzeppelin/contracts/utils/Context.sol\";\r\n\r\ncontract NFTGame is Context{\r\n    event SuccesfulClaim(uint256 _tokenId, uint _reward);\r\n    event FailedClaim(uint256 _tokenId);\r\n\r\n    FungibleToken _ft;\r\n    NonFungibleToken _nft;\r\n\r\n    uint nonce;\r\n\r\n    constructor(address ft, address nft){\r\n        _ft = FungibleToken(ft);\r\n        _nft = NonFungibleToken(nft);\r\n    }\r\n\r\n    function pseudoRNG() public returns(uint256) {\r\n        nonce++;\r\n        return uint256(keccak256(abi.encodePacked(nonce, msg.sender, blockhash(block.number - 1))));\r\n    }\r\n\r\n    function claimReward(uint256 tokenId) public returns(uint256){\r\n        require(_nft.ownerOf(tokenId) == _msgSender(), \"NFTGame: not owner of NFT\");\r\n        require(_nft.getApproved(tokenId) == address(this), \"NFTGame: NFT not approved, no NFT at stake.\");\r\n\r\n        uint256 rnd = pseudoRNG() % 100;\r\n        uint256 proba = _nft.getNftProba(tokenId);\r\n\r\n        if(rnd <= proba){\r\n            uint256 newProba = proba * 9 / 10;// TEMPORARY HARD CODED VALUE\r\n            _nft.updateNftProba(tokenId, newProba);\r\n\r\n            uint256 reward = _nft.getNftReward(tokenId);\r\n            _ft.mint(_msgSender(), reward);\r\n            _nft.updateNftReward(tokenId, reward++);// TEMPORARY HARD CODED VALUE\r\n\r\n            emit SuccesfulClaim(tokenId, reward);\r\n            return reward;\r\n        }\r\n        else{\r\n            _nft.burn(tokenId);\r\n            emit FailedClaim(tokenId);\r\n            return 0;\r\n        }\r\n    }\r\n}",
  "sourcePath": "C:\\Users\\fenik\\OneDrive\\Documents\\Hunga\\NFTProject\\contracts\\NFTGame.sol",
  "compiler": {
    "name": "solc",
    "version": "0.8.9+commit.e5eed63a.Emscripten.clang"
  },
  "schemaVersion": "3.4.3",
  "updatedAt": "2021-12-09T22:01:41.916Z",
  "networkType": "ethereum",
  "devdoc": {
    "kind": "dev",
    "methods": {},
    "version": 1
  },
  "userdoc": {
    "kind": "user",
    "methods": {},
    "version": 1
  }
}