{
  "contractName": "NonFungibleToken",
  "abi": [
    {
      "inputs": [
        {
          "internalType": "string",
          "name": "name",
          "type": "string"
        },
        {
          "internalType": "string",
          "name": "symbol",
          "type": "string"
        },
        {
          "internalType": "string",
          "name": "baseTokenURI",
          "type": "string"
        }
      ],
      "stateMutability": "nonpayable",
      "type": "constructor"
    },
    {
      "anonymous": false,
      "inputs": [
        {
          "indexed": true,
          "internalType": "address",
          "name": "owner",
          "type": "address"
        },
        {
          "indexed": true,
          "internalType": "address",
          "name": "approved",
          "type": "address"
        },
        {
          "indexed": true,
          "internalType": "uint256",
          "name": "tokenId",
          "type": "uint256"
        }
      ],
      "name": "Approval",
      "type": "event"
    },
    {
      "anonymous": false,
      "inputs": [
        {
          "indexed": true,
          "internalType": "address",
          "name": "owner",
          "type": "address"
        },
        {
          "indexed": true,
          "internalType": "address",
          "name": "operator",
          "type": "address"
        },
        {
          "indexed": false,
          "internalType": "bool",
          "name": "approved",
          "type": "bool"
        }
      ],
      "name": "ApprovalForAll",
      "type": "event"
    },
    {
      "anonymous": false,
      "inputs": [
        {
          "indexed": false,
          "internalType": "address",
          "name": "_to",
          "type": "address"
        },
        {
          "indexed": false,
          "internalType": "uint256",
          "name": "_id",
          "type": "uint256"
        }
      ],
      "name": "NFTMinted",
      "type": "event"
    },
    {
      "anonymous": false,
      "inputs": [
        {
          "indexed": false,
          "internalType": "uint256",
          "name": "_id",
          "type": "uint256"
        },
        {
          "indexed": false,
          "internalType": "uint256",
          "name": "_proba",
          "type": "uint256"
        }
      ],
      "name": "ProbaUpdated",
      "type": "event"
    },
    {
      "anonymous": false,
      "inputs": [
        {
          "indexed": false,
          "internalType": "uint256",
          "name": "_id",
          "type": "uint256"
        },
        {
          "indexed": false,
          "internalType": "uint256",
          "name": "_reward",
          "type": "uint256"
        }
      ],
      "name": "RewardUpdated",
      "type": "event"
    },
    {
      "anonymous": false,
      "inputs": [
        {
          "indexed": true,
          "internalType": "bytes32",
          "name": "role",
          "type": "bytes32"
        },
        {
          "indexed": true,
          "internalType": "bytes32",
          "name": "previousAdminRole",
          "type": "bytes32"
        },
        {
          "indexed": true,
          "internalType": "bytes32",
          "name": "newAdminRole",
          "type": "bytes32"
        }
      ],
      "name": "RoleAdminChanged",
      "type": "event"
    },
    {
      "anonymous": false,
      "inputs": [
        {
          "indexed": true,
          "internalType": "bytes32",
          "name": "role",
          "type": "bytes32"
        },
        {
          "indexed": true,
          "internalType": "address",
          "name": "account",
          "type": "address"
        },
        {
          "indexed": true,
          "internalType": "address",
          "name": "sender",
          "type": "address"
        }
      ],
      "name": "RoleGranted",
      "type": "event"
    },
    {
      "anonymous": false,
      "inputs": [
        {
          "indexed": true,
          "internalType": "bytes32",
          "name": "role",
          "type": "bytes32"
        },
        {
          "indexed": true,
          "internalType": "address",
          "name": "account",
          "type": "address"
        },
        {
          "indexed": true,
          "internalType": "address",
          "name": "sender",
          "type": "address"
        }
      ],
      "name": "RoleRevoked",
      "type": "event"
    },
    {
      "anonymous": false,
      "inputs": [
        {
          "indexed": true,
          "internalType": "address",
          "name": "from",
          "type": "address"
        },
        {
          "indexed": true,
          "internalType": "address",
          "name": "to",
          "type": "address"
        },
        {
          "indexed": true,
          "internalType": "uint256",
          "name": "tokenId",
          "type": "uint256"
        }
      ],
      "name": "Transfer",
      "type": "event"
    },
    {
      "inputs": [],
      "name": "DEFAULT_ADMIN_ROLE",
      "outputs": [
        {
          "internalType": "bytes32",
          "name": "",
          "type": "bytes32"
        }
      ],
      "stateMutability": "view",
      "type": "function",
      "constant": true
    },
    {
      "inputs": [],
      "name": "MINTER_ROLE",
      "outputs": [
        {
          "internalType": "bytes32",
          "name": "",
          "type": "bytes32"
        }
      ],
      "stateMutability": "view",
      "type": "function",
      "constant": true
    },
    {
      "inputs": [
        {
          "internalType": "address",
          "name": "to",
          "type": "address"
        },
        {
          "internalType": "uint256",
          "name": "tokenId",
          "type": "uint256"
        }
      ],
      "name": "approve",
      "outputs": [],
      "stateMutability": "nonpayable",
      "type": "function"
    },
    {
      "inputs": [
        {
          "internalType": "address",
          "name": "owner",
          "type": "address"
        }
      ],
      "name": "balanceOf",
      "outputs": [
        {
          "internalType": "uint256",
          "name": "",
          "type": "uint256"
        }
      ],
      "stateMutability": "view",
      "type": "function",
      "constant": true
    },
    {
      "inputs": [
        {
          "internalType": "uint256",
          "name": "tokenId",
          "type": "uint256"
        }
      ],
      "name": "burn",
      "outputs": [],
      "stateMutability": "nonpayable",
      "type": "function"
    },
    {
      "inputs": [
        {
          "internalType": "uint256",
          "name": "tokenId",
          "type": "uint256"
        }
      ],
      "name": "getApproved",
      "outputs": [
        {
          "internalType": "address",
          "name": "",
          "type": "address"
        }
      ],
      "stateMutability": "view",
      "type": "function",
      "constant": true
    },
    {
      "inputs": [
        {
          "internalType": "bytes32",
          "name": "role",
          "type": "bytes32"
        }
      ],
      "name": "getRoleAdmin",
      "outputs": [
        {
          "internalType": "bytes32",
          "name": "",
          "type": "bytes32"
        }
      ],
      "stateMutability": "view",
      "type": "function",
      "constant": true
    },
    {
      "inputs": [
        {
          "internalType": "bytes32",
          "name": "role",
          "type": "bytes32"
        },
        {
          "internalType": "uint256",
          "name": "index",
          "type": "uint256"
        }
      ],
      "name": "getRoleMember",
      "outputs": [
        {
          "internalType": "address",
          "name": "",
          "type": "address"
        }
      ],
      "stateMutability": "view",
      "type": "function",
      "constant": true
    },
    {
      "inputs": [
        {
          "internalType": "bytes32",
          "name": "role",
          "type": "bytes32"
        }
      ],
      "name": "getRoleMemberCount",
      "outputs": [
        {
          "internalType": "uint256",
          "name": "",
          "type": "uint256"
        }
      ],
      "stateMutability": "view",
      "type": "function",
      "constant": true
    },
    {
      "inputs": [
        {
          "internalType": "address",
          "name": "newMinter",
          "type": "address"
        }
      ],
      "name": "grantMinterRole",
      "outputs": [],
      "stateMutability": "nonpayable",
      "type": "function"
    },
    {
      "inputs": [
        {
          "internalType": "bytes32",
          "name": "role",
          "type": "bytes32"
        },
        {
          "internalType": "address",
          "name": "account",
          "type": "address"
        }
      ],
      "name": "grantRole",
      "outputs": [],
      "stateMutability": "nonpayable",
      "type": "function"
    },
    {
      "inputs": [
        {
          "internalType": "bytes32",
          "name": "role",
          "type": "bytes32"
        },
        {
          "internalType": "address",
          "name": "account",
          "type": "address"
        }
      ],
      "name": "hasRole",
      "outputs": [
        {
          "internalType": "bool",
          "name": "",
          "type": "bool"
        }
      ],
      "stateMutability": "view",
      "type": "function",
      "constant": true
    },
    {
      "inputs": [
        {
          "internalType": "address",
          "name": "owner",
          "type": "address"
        },
        {
          "internalType": "address",
          "name": "operator",
          "type": "address"
        }
      ],
      "name": "isApprovedForAll",
      "outputs": [
        {
          "internalType": "bool",
          "name": "",
          "type": "bool"
        }
      ],
      "stateMutability": "view",
      "type": "function",
      "constant": true
    },
    {
      "inputs": [],
      "name": "name",
      "outputs": [
        {
          "internalType": "string",
          "name": "",
          "type": "string"
        }
      ],
      "stateMutability": "view",
      "type": "function",
      "constant": true
    },
    {
      "inputs": [
        {
          "internalType": "uint256",
          "name": "tokenId",
          "type": "uint256"
        }
      ],
      "name": "ownerOf",
      "outputs": [
        {
          "internalType": "address",
          "name": "",
          "type": "address"
        }
      ],
      "stateMutability": "view",
      "type": "function",
      "constant": true
    },
    {
      "inputs": [
        {
          "internalType": "bytes32",
          "name": "role",
          "type": "bytes32"
        },
        {
          "internalType": "address",
          "name": "account",
          "type": "address"
        }
      ],
      "name": "renounceRole",
      "outputs": [],
      "stateMutability": "nonpayable",
      "type": "function"
    },
    {
      "inputs": [
        {
          "internalType": "address",
          "name": "Minter",
          "type": "address"
        }
      ],
      "name": "revokeMinterRole",
      "outputs": [],
      "stateMutability": "nonpayable",
      "type": "function"
    },
    {
      "inputs": [
        {
          "internalType": "bytes32",
          "name": "role",
          "type": "bytes32"
        },
        {
          "internalType": "address",
          "name": "account",
          "type": "address"
        }
      ],
      "name": "revokeRole",
      "outputs": [],
      "stateMutability": "nonpayable",
      "type": "function"
    },
    {
      "inputs": [
        {
          "internalType": "address",
          "name": "from",
          "type": "address"
        },
        {
          "internalType": "address",
          "name": "to",
          "type": "address"
        },
        {
          "internalType": "uint256",
          "name": "tokenId",
          "type": "uint256"
        }
      ],
      "name": "safeTransferFrom",
      "outputs": [],
      "stateMutability": "nonpayable",
      "type": "function"
    },
    {
      "inputs": [
        {
          "internalType": "address",
          "name": "from",
          "type": "address"
        },
        {
          "internalType": "address",
          "name": "to",
          "type": "address"
        },
        {
          "internalType": "uint256",
          "name": "tokenId",
          "type": "uint256"
        },
        {
          "internalType": "bytes",
          "name": "_data",
          "type": "bytes"
        }
      ],
      "name": "safeTransferFrom",
      "outputs": [],
      "stateMutability": "nonpayable",
      "type": "function"
    },
    {
      "inputs": [
        {
          "internalType": "address",
          "name": "operator",
          "type": "address"
        },
        {
          "internalType": "bool",
          "name": "approved",
          "type": "bool"
        }
      ],
      "name": "setApprovalForAll",
      "outputs": [],
      "stateMutability": "nonpayable",
      "type": "function"
    },
    {
      "inputs": [
        {
          "internalType": "bytes4",
          "name": "interfaceId",
          "type": "bytes4"
        }
      ],
      "name": "supportsInterface",
      "outputs": [
        {
          "internalType": "bool",
          "name": "",
          "type": "bool"
        }
      ],
      "stateMutability": "view",
      "type": "function",
      "constant": true
    },
    {
      "inputs": [],
      "name": "symbol",
      "outputs": [
        {
          "internalType": "string",
          "name": "",
          "type": "string"
        }
      ],
      "stateMutability": "view",
      "type": "function",
      "constant": true
    },
    {
      "inputs": [
        {
          "internalType": "uint256",
          "name": "index",
          "type": "uint256"
        }
      ],
      "name": "tokenByIndex",
      "outputs": [
        {
          "internalType": "uint256",
          "name": "",
          "type": "uint256"
        }
      ],
      "stateMutability": "view",
      "type": "function",
      "constant": true
    },
    {
      "inputs": [
        {
          "internalType": "address",
          "name": "owner",
          "type": "address"
        },
        {
          "internalType": "uint256",
          "name": "index",
          "type": "uint256"
        }
      ],
      "name": "tokenOfOwnerByIndex",
      "outputs": [
        {
          "internalType": "uint256",
          "name": "",
          "type": "uint256"
        }
      ],
      "stateMutability": "view",
      "type": "function",
      "constant": true
    },
    {
      "inputs": [
        {
          "internalType": "uint256",
          "name": "tokenId",
          "type": "uint256"
        }
      ],
      "name": "tokenURI",
      "outputs": [
        {
          "internalType": "string",
          "name": "",
          "type": "string"
        }
      ],
      "stateMutability": "view",
      "type": "function",
      "constant": true
    },
    {
      "inputs": [],
      "name": "totalSupply",
      "outputs": [
        {
          "internalType": "uint256",
          "name": "",
          "type": "uint256"
        }
      ],
      "stateMutability": "view",
      "type": "function",
      "constant": true
    },
    {
      "inputs": [
        {
          "internalType": "address",
          "name": "from",
          "type": "address"
        },
        {
          "internalType": "address",
          "name": "to",
          "type": "address"
        },
        {
          "internalType": "uint256",
          "name": "tokenId",
          "type": "uint256"
        }
      ],
      "name": "transferFrom",
      "outputs": [],
      "stateMutability": "nonpayable",
      "type": "function"
    },
    {
      "inputs": [
        {
          "internalType": "uint256",
          "name": "tokenId",
          "type": "uint256"
        }
      ],
      "name": "getNftProba",
      "outputs": [
        {
          "internalType": "uint256",
          "name": "",
          "type": "uint256"
        }
      ],
      "stateMutability": "view",
      "type": "function",
      "constant": true
    },
    {
      "inputs": [
        {
          "internalType": "uint256",
          "name": "tokenId",
          "type": "uint256"
        }
      ],
      "name": "getNftReward",
      "outputs": [
        {
          "internalType": "uint256",
          "name": "",
          "type": "uint256"
        }
      ],
      "stateMutability": "view",
      "type": "function",
      "constant": true
    },
    {
      "inputs": [
        {
          "internalType": "uint256",
          "name": "tokenId",
          "type": "uint256"
        },
        {
          "internalType": "uint256",
          "name": "newProba",
          "type": "uint256"
        }
      ],
      "name": "updateNftProba",
      "outputs": [
        {
          "internalType": "bool",
          "name": "",
          "type": "bool"
        }
      ],
      "stateMutability": "nonpayable",
      "type": "function"
    },
    {
      "inputs": [
        {
          "internalType": "uint256",
          "name": "tokenId",
          "type": "uint256"
        },
        {
          "internalType": "uint256",
          "name": "newReward",
          "type": "uint256"
        }
      ],
      "name": "updateNftReward",
      "outputs": [
        {
          "internalType": "bool",
          "name": "",
          "type": "bool"
        }
      ],
      "stateMutability": "nonpayable",
      "type": "function"
    },
    {
      "inputs": [
        {
          "internalType": "address",
          "name": "to",
          "type": "address"
        }
      ],
      "name": "mint",
      "outputs": [
        {
          "internalType": "uint256",
          "name": "",
          "type": "uint256"
        }
      ],
      "stateMutability": "nonpayable",
      "type": "function"
    }
  ],
  "bytecode": "0x60806040523480156200001157600080fd5b5060405162004d3e38038062004d3e8339818101604052810190620000379190620005dd565b828282828281600290805190602001906200005492919062000390565b5080600390805190602001906200006d92919062000390565b50505080600d90805190602001906200008892919062000390565b50620000ad6000801b620000a1620000fa60201b60201c565b6200010260201b60201c565b620000ee7f9f2df0fed2c77648de5860a4cc508cd0818c85b8b8a1ab4ceeef8d981c8956a6620000e2620000fa60201b60201c565b6200010260201b60201c565b505050505050620006fb565b600033905090565b6200011482826200011860201b60201c565b5050565b6200012f82826200016060201b620013161760201c565b6200015b81600160008581526020019081526020016000206200025160201b620013f61790919060201c565b505050565b6200017282826200028960201b60201c565b6200024d57600160008084815260200190815260200160002060000160008373ffffffffffffffffffffffffffffffffffffffff1673ffffffffffffffffffffffffffffffffffffffff16815260200190815260200160002060006101000a81548160ff021916908315150217905550620001f2620000fa60201b60201c565b73ffffffffffffffffffffffffffffffffffffffff168173ffffffffffffffffffffffffffffffffffffffff16837f2f8788117e7eff1d82e926ec794901d17c78024a50270940304540a733656f0d60405160405180910390a45b5050565b600062000281836000018373ffffffffffffffffffffffffffffffffffffffff1660001b620002f360201b60201c565b905092915050565b600080600084815260200190815260200160002060000160008373ffffffffffffffffffffffffffffffffffffffff1673ffffffffffffffffffffffffffffffffffffffff16815260200190815260200160002060009054906101000a900460ff16905092915050565b60006200030783836200036d60201b60201c565b6200036257826000018290806001815401808255809150506001900390600052602060002001600090919091909150558260000180549050836001016000848152602001908152602001600020819055506001905062000367565b600090505b92915050565b600080836001016000848152602001908152602001600020541415905092915050565b8280546200039e90620006c5565b90600052602060002090601f016020900481019282620003c257600085556200040e565b82601f10620003dd57805160ff19168380011785556200040e565b828001600101855582156200040e579182015b828111156200040d578251825591602001919060010190620003f0565b5b5090506200041d919062000421565b5090565b5b808211156200043c57600081600090555060010162000422565b5090565b6000604051905090565b600080fd5b600080fd5b600080fd5b600080fd5b6000601f19601f8301169050919050565b7f4e487b7100000000000000000000000000000000000000000000000000000000600052604160045260246000fd5b620004a9826200045e565b810181811067ffffffffffffffff82111715620004cb57620004ca6200046f565b5b80604052505050565b6000620004e062000440565b9050620004ee82826200049e565b919050565b600067ffffffffffffffff8211156200051157620005106200046f565b5b6200051c826200045e565b9050602081019050919050565b60005b83811015620005495780820151818401526020810190506200052c565b8381111562000559576000848401525b50505050565b6000620005766200057084620004f3565b620004d4565b90508281526020810184848401111562000595576200059462000459565b5b620005a284828562000529565b509392505050565b600082601f830112620005c257620005c162000454565b5b8151620005d48482602086016200055f565b91505092915050565b600080600060608486031215620005f957620005f86200044a565b5b600084015167ffffffffffffffff8111156200061a57620006196200044f565b5b6200062886828701620005aa565b935050602084015167ffffffffffffffff8111156200064c576200064b6200044f565b5b6200065a86828701620005aa565b925050604084015167ffffffffffffffff8111156200067e576200067d6200044f565b5b6200068c86828701620005aa565b9150509250925092565b7f4e487b7100000000000000000000000000000000000000000000000000000000600052602260045260246000fd5b60006002820490506001821680620006de57607f821691505b60208210811415620006f557620006f462000696565b5b50919050565b614633806200070b6000396000f3fe608060405234801561001057600080fd5b50600436106101fb5760003560e01c80634f6ccce71161011a578063a217fddf116100ad578063ca15c8731161007c578063ca15c87314610630578063d539139314610660578063d547741f1461067e578063e88050721461069a578063e985e9c5146106ca576101fb565b8063a217fddf146105aa578063a22cb465146105c8578063b88d4fde146105e4578063c87b56dd14610600576101fb565b806370a08231116100e957806370a08231146104fc5780639010d07c1461052c57806391d148541461055c57806395d89b411461058c576101fb565b80634f6ccce7146104505780636352211e1461048057806369e2f0fb146104b05780636a627842146104cc576101fb565b80632f2ff15d1161019257806336568abe1161016157806336568abe146103e05780633dd1eb61146103fc57806342842e0e1461041857806342966c6814610434576101fb565b80632f2ff15d146103345780632f745c5914610350578063322b88851461038057806332a69101146103b0576101fb565b806318160ddd116101ce57806318160ddd1461029a57806320c709cf146102b857806323b872dd146102e8578063248a9ca314610304576101fb565b806301ffc9a71461020057806306fdde0314610230578063081812fc1461024e578063095ea7b31461027e575b600080fd5b61021a60048036038101906102159190612f4c565b6106fa565b6040516102279190612f94565b60405180910390f35b61023861070c565b6040516102459190613048565b60405180910390f35b610268600480360381019061026391906130a0565b61079e565b604051610275919061310e565b60405180910390f35b61029860048036038101906102939190613155565b610823565b005b6102a261093b565b6040516102af91906131a4565b60405180910390f35b6102d260048036038101906102cd91906131bf565b610948565b6040516102df9190612f94565b60405180910390f35b61030260048036038101906102fd91906131ff565b6109db565b005b61031e60048036038101906103199190613288565b610a3b565b60405161032b91906132c4565b60405180910390f35b61034e600480360381019061034991906132df565b610a5a565b005b61036a60048036038101906103659190613155565b610a83565b60405161037791906131a4565b60405180910390f35b61039a600480360381019061039591906130a0565b610b28565b6040516103a791906131a4565b60405180910390f35b6103ca60048036038101906103c591906131bf565b610b48565b6040516103d79190612f94565b60405180910390f35b6103fa60048036038101906103f591906132df565b610bdb565b005b6104166004803603810190610411919061331f565b610c5e565b005b610432600480360381019061042d91906131ff565b610c8b565b005b61044e600480360381019061044991906130a0565b610cab565b005b61046a600480360381019061046591906130a0565b610d07565b60405161047791906131a4565b60405180910390f35b61049a600480360381019061049591906130a0565b610d78565b6040516104a7919061310e565b60405180910390f35b6104ca60048036038101906104c5919061331f565b610e2a565b005b6104e660048036038101906104e1919061331f565b610e57565b6040516104f391906131a4565b60405180910390f35b6105166004803603810190610511919061331f565b610ee8565b60405161052391906131a4565b60405180910390f35b6105466004803603810190610541919061334c565b610fa0565b604051610553919061310e565b60405180910390f35b610576600480360381019061057191906132df565b610fcf565b6040516105839190612f94565b60405180910390f35b610594611039565b6040516105a19190613048565b60405180910390f35b6105b26110cb565b6040516105bf91906132c4565b60405180910390f35b6105e260048036038101906105dd91906133b8565b6110d2565b005b6105fe60048036038101906105f9919061352d565b6110e8565b005b61061a600480360381019061061591906130a0565b61114a565b6040516106279190613048565b60405180910390f35b61064a60048036038101906106459190613288565b6111f1565b60405161065791906131a4565b60405180910390f35b610668611215565b60405161067591906132c4565b60405180910390f35b610698600480360381019061069391906132df565b611239565b005b6106b460048036038101906106af91906130a0565b611262565b6040516106c191906131a4565b60405180910390f35b6106e460048036038101906106df91906135b0565b611282565b6040516106f19190612f94565b60405180910390f35b600061070582611426565b9050919050565b60606002805461071b9061361f565b80601f01602080910402602001604051908101604052809291908181526020018280546107479061361f565b80156107945780601f1061076957610100808354040283529160200191610794565b820191906000526020600020905b81548152906001019060200180831161077757829003601f168201915b5050505050905090565b60006107a9826114a0565b6107e8576040517f08c379a00000000000000000000000000000000000000000000000000000000081526004016107df906136c3565b60405180910390fd5b6006600083815260200190815260200160002060009054906101000a900473ffffffffffffffffffffffffffffffffffffffff169050919050565b600061082e82610d78565b90508073ffffffffffffffffffffffffffffffffffffffff168373ffffffffffffffffffffffffffffffffffffffff16141561089f576040517f08c379a000000000000000000000000000000000000000000000000000000000815260040161089690613755565b60405180910390fd5b8073ffffffffffffffffffffffffffffffffffffffff166108be61150c565b73ffffffffffffffffffffffffffffffffffffffff1614806108ed57506108ec816108e761150c565b611282565b5b61092c576040517f08c379a0000000000000000000000000000000000000000000000000000000008152600401610923906137e7565b60405180910390fd5b6109368383611514565b505050565b6000600a80549050905090565b60007f9f2df0fed2c77648de5860a4cc508cd0818c85b8b8a1ab4ceeef8d981c8956a661097c8161097761150c565b6115cd565b82600e6000868152602001908152602001600020600101819055507fad9e6c1aabf650faa469a661f0fef969bd52cd6b7d1fd42051e3fc970faa32cc84846040516109c8929190613807565b60405180910390a1600191505092915050565b6109ec6109e661150c565b8261166a565b610a2b576040517f08c379a0000000000000000000000000000000000000000000000000000000008152600401610a22906138a2565b60405180910390fd5b610a36838383611748565b505050565b6000806000838152602001908152602001600020600101549050919050565b610a6382610a3b565b610a7481610a6f61150c565b6115cd565b610a7e83836119a4565b505050565b6000610a8e83610ee8565b8210610acf576040517f08c379a0000000000000000000000000000000000000000000000000000000008152600401610ac690613934565b60405180910390fd5b600860008473ffffffffffffffffffffffffffffffffffffffff1673ffffffffffffffffffffffffffffffffffffffff168152602001908152602001600020600083815260200190815260200160002054905092915050565b6000600e6000838152602001908152602001600020600001549050919050565b60007f9f2df0fed2c77648de5860a4cc508cd0818c85b8b8a1ab4ceeef8d981c8956a6610b7c81610b7761150c565b6115cd565b82600e6000868152602001908152602001600020600001819055507f3efe2b1ade87153c913a322f09a35c930d7fd699770b8d7cdd294e1debf6e9e48484604051610bc8929190613807565b60405180910390a1600191505092915050565b610be361150c565b73ffffffffffffffffffffffffffffffffffffffff168173ffffffffffffffffffffffffffffffffffffffff1614610c50576040517f08c379a0000000000000000000000000000000000000000000000000000000008152600401610c47906139c6565b60405180910390fd5b610c5a82826119d8565b5050565b610c887f9f2df0fed2c77648de5860a4cc508cd0818c85b8b8a1ab4ceeef8d981c8956a682610a5a565b50565b610ca6838383604051806020016040528060008152506110e8565b505050565b610cbc610cb661150c565b8261166a565b610cfb576040517f08c379a0000000000000000000000000000000000000000000000000000000008152600401610cf290613a58565b60405180910390fd5b610d0481611a0c565b50565b6000610d1161093b565b8210610d52576040517f08c379a0000000000000000000000000000000000000000000000000000000008152600401610d4990613aea565b60405180910390fd5b600a8281548110610d6657610d65613b0a565b5b90600052602060002001549050919050565b6000806004600084815260200190815260200160002060009054906101000a900473ffffffffffffffffffffffffffffffffffffffff169050600073ffffffffffffffffffffffffffffffffffffffff168173ffffffffffffffffffffffffffffffffffffffff161415610e21576040517f08c379a0000000000000000000000000000000000000000000000000000000008152600401610e1890613bab565b60405180910390fd5b80915050919050565b610e547f9f2df0fed2c77648de5860a4cc508cd0818c85b8b8a1ab4ceeef8d981c8956a682611239565b50565b600080610e6383611b1d565b90506040518060400160405280600181526020016032815250600e600083815260200190815260200160002060008201518160000155602082015181600101559050507f4cc0a9c4a99ddc700de1af2c9f916a7cbfdb71f14801ccff94061ad1ef8a80408382604051610ed7929190613bcb565b60405180910390a180915050919050565b60008073ffffffffffffffffffffffffffffffffffffffff168273ffffffffffffffffffffffffffffffffffffffff161415610f59576040517f08c379a0000000000000000000000000000000000000000000000000000000008152600401610f5090613c66565b60405180910390fd5b600560008373ffffffffffffffffffffffffffffffffffffffff1673ffffffffffffffffffffffffffffffffffffffff168152602001908152602001600020549050919050565b6000610fc78260016000868152602001908152602001600020611bba90919063ffffffff16565b905092915050565b600080600084815260200190815260200160002060000160008373ffffffffffffffffffffffffffffffffffffffff1673ffffffffffffffffffffffffffffffffffffffff16815260200190815260200160002060009054906101000a900460ff16905092915050565b6060600380546110489061361f565b80601f01602080910402602001604051908101604052809291908181526020018280546110749061361f565b80156110c15780601f10611096576101008083540402835291602001916110c1565b820191906000526020600020905b8154815290600101906020018083116110a457829003601f168201915b5050505050905090565b6000801b81565b6110e46110dd61150c565b8383611bd4565b5050565b6110f96110f361150c565b8361166a565b611138576040517f08c379a000000000000000000000000000000000000000000000000000000000815260040161112f906138a2565b60405180910390fd5b61114484848484611d41565b50505050565b6060611155826114a0565b611194576040517f08c379a000000000000000000000000000000000000000000000000000000000815260040161118b90613cf8565b60405180910390fd5b600061119e611d9d565b905060008151116111be57604051806020016040528060008152506111e9565b806111c884611e2f565b6040516020016111d9929190613d54565b6040516020818303038152906040525b915050919050565b600061120e60016000848152602001908152602001600020611f90565b9050919050565b7f9f2df0fed2c77648de5860a4cc508cd0818c85b8b8a1ab4ceeef8d981c8956a681565b61124282610a3b565b6112538161124e61150c565b6115cd565b61125d83836119d8565b505050565b6000600e6000838152602001908152602001600020600101549050919050565b6000600760008473ffffffffffffffffffffffffffffffffffffffff1673ffffffffffffffffffffffffffffffffffffffff16815260200190815260200160002060008373ffffffffffffffffffffffffffffffffffffffff1673ffffffffffffffffffffffffffffffffffffffff16815260200190815260200160002060009054906101000a900460ff16905092915050565b6113208282610fcf565b6113f257600160008084815260200190815260200160002060000160008373ffffffffffffffffffffffffffffffffffffffff1673ffffffffffffffffffffffffffffffffffffffff16815260200190815260200160002060006101000a81548160ff02191690831515021790555061139761150c565b73ffffffffffffffffffffffffffffffffffffffff168173ffffffffffffffffffffffffffffffffffffffff16837f2f8788117e7eff1d82e926ec794901d17c78024a50270940304540a733656f0d60405160405180910390a45b5050565b600061141e836000018373ffffffffffffffffffffffffffffffffffffffff1660001b611fa5565b905092915050565b60007f780e9d63000000000000000000000000000000000000000000000000000000007bffffffffffffffffffffffffffffffffffffffffffffffffffffffff1916827bffffffffffffffffffffffffffffffffffffffffffffffffffffffff19161480611499575061149882612015565b5b9050919050565b60008073ffffffffffffffffffffffffffffffffffffffff166004600084815260200190815260200160002060009054906101000a900473ffffffffffffffffffffffffffffffffffffffff1673ffffffffffffffffffffffffffffffffffffffff1614159050919050565b600033905090565b816006600083815260200190815260200160002060006101000a81548173ffffffffffffffffffffffffffffffffffffffff021916908373ffffffffffffffffffffffffffffffffffffffff160217905550808273ffffffffffffffffffffffffffffffffffffffff1661158783610d78565b73ffffffffffffffffffffffffffffffffffffffff167f8c5be1e5ebec7d5bd14f71427d1e84f3dd0314c0f7b2291e5b200ac8c7c3b92560405160405180910390a45050565b6115d78282610fcf565b611666576115fc8173ffffffffffffffffffffffffffffffffffffffff1660146120f7565b61160a8360001c60206120f7565b60405160200161161b929190613e10565b6040516020818303038152906040526040517f08c379a000000000000000000000000000000000000000000000000000000000815260040161165d9190613048565b60405180910390fd5b5050565b6000611675826114a0565b6116b4576040517f08c379a00000000000000000000000000000000000000000000000000000000081526004016116ab90613ebc565b60405180910390fd5b60006116bf83610d78565b90508073ffffffffffffffffffffffffffffffffffffffff168473ffffffffffffffffffffffffffffffffffffffff16148061172e57508373ffffffffffffffffffffffffffffffffffffffff166117168461079e565b73ffffffffffffffffffffffffffffffffffffffff16145b8061173f575061173e8185611282565b5b91505092915050565b8273ffffffffffffffffffffffffffffffffffffffff1661176882610d78565b73ffffffffffffffffffffffffffffffffffffffff16146117be576040517f08c379a00000000000000000000000000000000000000000000000000000000081526004016117b590613f4e565b60405180910390fd5b600073ffffffffffffffffffffffffffffffffffffffff168273ffffffffffffffffffffffffffffffffffffffff16141561182e576040517f08c379a000000000000000000000000000000000000000000000000000000000815260040161182590613fe0565b60405180910390fd5b611839838383612333565b611844600082611514565b6001600560008573ffffffffffffffffffffffffffffffffffffffff1673ffffffffffffffffffffffffffffffffffffffff1681526020019081526020016000206000828254611894919061402f565b925050819055506001600560008473ffffffffffffffffffffffffffffffffffffffff1673ffffffffffffffffffffffffffffffffffffffff16815260200190815260200160002060008282546118eb9190614063565b92505081905550816004600083815260200190815260200160002060006101000a81548173ffffffffffffffffffffffffffffffffffffffff021916908373ffffffffffffffffffffffffffffffffffffffff160217905550808273ffffffffffffffffffffffffffffffffffffffff168473ffffffffffffffffffffffffffffffffffffffff167fddf252ad1be2c89b69c2b068fc378daa952ba7f163c4a11628f55a4df523b3ef60405160405180910390a4505050565b6119ae8282611316565b6119d381600160008581526020019081526020016000206113f690919063ffffffff16565b505050565b6119e28282612343565b611a07816001600085815260200190815260200160002061242490919063ffffffff16565b505050565b6000611a1782610d78565b9050611a2581600084612333565b611a30600083611514565b6001600560008373ffffffffffffffffffffffffffffffffffffffff1673ffffffffffffffffffffffffffffffffffffffff1681526020019081526020016000206000828254611a80919061402f565b925050819055506004600083815260200190815260200160002060006101000a81549073ffffffffffffffffffffffffffffffffffffffff021916905581600073ffffffffffffffffffffffffffffffffffffffff168273ffffffffffffffffffffffffffffffffffffffff167fddf252ad1be2c89b69c2b068fc378daa952ba7f163c4a11628f55a4df523b3ef60405160405180910390a45050565b6000611b507f9f2df0fed2c77648de5860a4cc508cd0818c85b8b8a1ab4ceeef8d981c8956a6611b4b61150c565b610fcf565b611b8f576040517f08c379a0000000000000000000000000000000000000000000000000000000008152600401611b869061412b565b60405180910390fd5b6000611b9b600c612454565b9050611ba78382612462565b611bb1600c612630565b80915050919050565b6000611bc98360000183612646565b60001c905092915050565b8173ffffffffffffffffffffffffffffffffffffffff168373ffffffffffffffffffffffffffffffffffffffff161415611c43576040517f08c379a0000000000000000000000000000000000000000000000000000000008152600401611c3a90614197565b60405180910390fd5b80600760008573ffffffffffffffffffffffffffffffffffffffff1673ffffffffffffffffffffffffffffffffffffffff16815260200190815260200160002060008473ffffffffffffffffffffffffffffffffffffffff1673ffffffffffffffffffffffffffffffffffffffff16815260200190815260200160002060006101000a81548160ff0219169083151502179055508173ffffffffffffffffffffffffffffffffffffffff168373ffffffffffffffffffffffffffffffffffffffff167f17307eab39ab6107e8899845ad3d59bd9653f200f220920489ca2b5937696c3183604051611d349190612f94565b60405180910390a3505050565b611d4c848484611748565b611d5884848484612671565b611d97576040517f08c379a0000000000000000000000000000000000000000000000000000000008152600401611d8e90614229565b60405180910390fd5b50505050565b6060600d8054611dac9061361f565b80601f0160208091040260200160405190810160405280929190818152602001828054611dd89061361f565b8015611e255780601f10611dfa57610100808354040283529160200191611e25565b820191906000526020600020905b815481529060010190602001808311611e0857829003601f168201915b5050505050905090565b60606000821415611e77576040518060400160405280600181526020017f30000000000000000000000000000000000000000000000000000000000000008152509050611f8b565b600082905060005b60008214611ea9578080611e9290614249565b915050600a82611ea291906142c1565b9150611e7f565b60008167ffffffffffffffff811115611ec557611ec4613402565b5b6040519080825280601f01601f191660200182016040528015611ef75781602001600182028036833780820191505090505b5090505b60008514611f8457600182611f10919061402f565b9150600a85611f1f91906142f2565b6030611f2b9190614063565b60f81b818381518110611f4157611f40613b0a565b5b60200101907effffffffffffffffffffffffffffffffffffffffffffffffffffffffffffff1916908160001a905350600a85611f7d91906142c1565b9450611efb565b8093505050505b919050565b6000611f9e82600001612808565b9050919050565b6000611fb18383612819565b61200a57826000018290806001815401808255809150506001900390600052602060002001600090919091909150558260000180549050836001016000848152602001908152602001600020819055506001905061200f565b600090505b92915050565b60007f80ac58cd000000000000000000000000000000000000000000000000000000007bffffffffffffffffffffffffffffffffffffffffffffffffffffffff1916827bffffffffffffffffffffffffffffffffffffffffffffffffffffffff191614806120e057507f5b5e139f000000000000000000000000000000000000000000000000000000007bffffffffffffffffffffffffffffffffffffffffffffffffffffffff1916827bffffffffffffffffffffffffffffffffffffffffffffffffffffffff1916145b806120f057506120ef8261283c565b5b9050919050565b60606000600283600261210a9190614323565b6121149190614063565b67ffffffffffffffff81111561212d5761212c613402565b5b6040519080825280601f01601f19166020018201604052801561215f5781602001600182028036833780820191505090505b5090507f30000000000000000000000000000000000000000000000000000000000000008160008151811061219757612196613b0a565b5b60200101907effffffffffffffffffffffffffffffffffffffffffffffffffffffffffffff1916908160001a9053507f7800000000000000000000000000000000000000000000000000000000000000816001815181106121fb576121fa613b0a565b5b60200101907effffffffffffffffffffffffffffffffffffffffffffffffffffffffffffff1916908160001a9053506000600184600261223b9190614323565b6122459190614063565b90505b60018111156122e5577f3031323334353637383961626364656600000000000000000000000000000000600f86166010811061228757612286613b0a565b5b1a60f81b82828151811061229e5761229d613b0a565b5b60200101907effffffffffffffffffffffffffffffffffffffffffffffffffffffffffffff1916908160001a905350600485901c9450806122de9061437d565b9050612248565b5060008414612329576040517f08c379a0000000000000000000000000000000000000000000000000000000008152600401612320906143f3565b60405180910390fd5b8091505092915050565b61233e8383836128b6565b505050565b61234d8282610fcf565b1561242057600080600084815260200190815260200160002060000160008373ffffffffffffffffffffffffffffffffffffffff1673ffffffffffffffffffffffffffffffffffffffff16815260200190815260200160002060006101000a81548160ff0219169083151502179055506123c561150c565b73ffffffffffffffffffffffffffffffffffffffff168173ffffffffffffffffffffffffffffffffffffffff16837ff6391f5c32d9c69d2a47ea670b442974b53935d1edc7fd64eb21e047a839171b60405160405180910390a45b5050565b600061244c836000018373ffffffffffffffffffffffffffffffffffffffff1660001b6129ca565b905092915050565b600081600001549050919050565b600073ffffffffffffffffffffffffffffffffffffffff168273ffffffffffffffffffffffffffffffffffffffff1614156124d2576040517f08c379a00000000000000000000000000000000000000000000000000000000081526004016124c99061445f565b60405180910390fd5b6124db816114a0565b1561251b576040517f08c379a0000000000000000000000000000000000000000000000000000000008152600401612512906144cb565b60405180910390fd5b61252760008383612333565b6001600560008473ffffffffffffffffffffffffffffffffffffffff1673ffffffffffffffffffffffffffffffffffffffff16815260200190815260200160002060008282546125779190614063565b92505081905550816004600083815260200190815260200160002060006101000a81548173ffffffffffffffffffffffffffffffffffffffff021916908373ffffffffffffffffffffffffffffffffffffffff160217905550808273ffffffffffffffffffffffffffffffffffffffff16600073ffffffffffffffffffffffffffffffffffffffff167fddf252ad1be2c89b69c2b068fc378daa952ba7f163c4a11628f55a4df523b3ef60405160405180910390a45050565b6001816000016000828254019250508190555050565b600082600001828154811061265e5761265d613b0a565b5b9060005260206000200154905092915050565b60006126928473ffffffffffffffffffffffffffffffffffffffff16612ade565b156127fb578373ffffffffffffffffffffffffffffffffffffffff1663150b7a026126bb61150c565b8786866040518563ffffffff1660e01b81526004016126dd9493929190614540565b602060405180830381600087803b1580156126f757600080fd5b505af192505050801561272857506040513d601f19601f8201168201806040525081019061272591906145a1565b60015b6127ab573d8060008114612758576040519150601f19603f3d011682016040523d82523d6000602084013e61275d565b606091505b506000815114156127a3576040517f08c379a000000000000000000000000000000000000000000000000000000000815260040161279a90614229565b60405180910390fd5b805181602001fd5b63150b7a0260e01b7bffffffffffffffffffffffffffffffffffffffffffffffffffffffff1916817bffffffffffffffffffffffffffffffffffffffffffffffffffffffff191614915050612800565b600190505b949350505050565b600081600001805490509050919050565b600080836001016000848152602001908152602001600020541415905092915050565b60007f5a05180f000000000000000000000000000000000000000000000000000000007bffffffffffffffffffffffffffffffffffffffffffffffffffffffff1916827bffffffffffffffffffffffffffffffffffffffffffffffffffffffff191614806128af57506128ae82612af1565b5b9050919050565b6128c1838383612b6b565b600073ffffffffffffffffffffffffffffffffffffffff168373ffffffffffffffffffffffffffffffffffffffff161415612904576128ff81612b70565b612943565b8173ffffffffffffffffffffffffffffffffffffffff168373ffffffffffffffffffffffffffffffffffffffff1614612942576129418382612bb9565b5b5b600073ffffffffffffffffffffffffffffffffffffffff168273ffffffffffffffffffffffffffffffffffffffff1614156129865761298181612d26565b6129c5565b8273ffffffffffffffffffffffffffffffffffffffff168273ffffffffffffffffffffffffffffffffffffffff16146129c4576129c38282612df7565b5b5b505050565b60008083600101600084815260200190815260200160002054905060008114612ad25760006001826129fc919061402f565b9050600060018660000180549050612a14919061402f565b9050818114612a83576000866000018281548110612a3557612a34613b0a565b5b9060005260206000200154905080876000018481548110612a5957612a58613b0a565b5b90600052602060002001819055508387600101600083815260200190815260200160002081905550505b85600001805480612a9757612a966145ce565b5b600190038181906000526020600020016000905590558560010160008681526020019081526020016000206000905560019350505050612ad8565b60009150505b92915050565b600080823b905060008111915050919050565b60007f7965db0b000000000000000000000000000000000000000000000000000000007bffffffffffffffffffffffffffffffffffffffffffffffffffffffff1916827bffffffffffffffffffffffffffffffffffffffffffffffffffffffff19161480612b645750612b6382612e76565b5b9050919050565b505050565b600a80549050600b600083815260200190815260200160002081905550600a81908060018154018082558091505060019003906000526020600020016000909190919091505550565b60006001612bc684610ee8565b612bd0919061402f565b9050600060096000848152602001908152602001600020549050818114612cb5576000600860008673ffffffffffffffffffffffffffffffffffffffff1673ffffffffffffffffffffffffffffffffffffffff168152602001908152602001600020600084815260200190815260200160002054905080600860008773ffffffffffffffffffffffffffffffffffffffff1673ffffffffffffffffffffffffffffffffffffffff168152602001908152602001600020600084815260200190815260200160002081905550816009600083815260200190815260200160002081905550505b6009600084815260200190815260200160002060009055600860008573ffffffffffffffffffffffffffffffffffffffff1673ffffffffffffffffffffffffffffffffffffffff16815260200190815260200160002060008381526020019081526020016000206000905550505050565b60006001600a80549050612d3a919061402f565b90506000600b60008481526020019081526020016000205490506000600a8381548110612d6a57612d69613b0a565b5b9060005260206000200154905080600a8381548110612d8c57612d8b613b0a565b5b906000526020600020018190555081600b600083815260200190815260200160002081905550600b600085815260200190815260200160002060009055600a805480612ddb57612dda6145ce565b5b6001900381819060005260206000200160009055905550505050565b6000612e0283610ee8565b905081600860008573ffffffffffffffffffffffffffffffffffffffff1673ffffffffffffffffffffffffffffffffffffffff168152602001908152602001600020600083815260200190815260200160002081905550806009600084815260200190815260200160002081905550505050565b60007f01ffc9a7000000000000000000000000000000000000000000000000000000007bffffffffffffffffffffffffffffffffffffffffffffffffffffffff1916827bffffffffffffffffffffffffffffffffffffffffffffffffffffffff1916149050919050565b6000604051905090565b600080fd5b600080fd5b60007fffffffff0000000000000000000000000000000000000000000000000000000082169050919050565b612f2981612ef4565b8114612f3457600080fd5b50565b600081359050612f4681612f20565b92915050565b600060208284031215612f6257612f61612eea565b5b6000612f7084828501612f37565b91505092915050565b60008115159050919050565b612f8e81612f79565b82525050565b6000602082019050612fa96000830184612f85565b92915050565b600081519050919050565b600082825260208201905092915050565b60005b83811015612fe9578082015181840152602081019050612fce565b83811115612ff8576000848401525b50505050565b6000601f19601f8301169050919050565b600061301a82612faf565b6130248185612fba565b9350613034818560208601612fcb565b61303d81612ffe565b840191505092915050565b60006020820190508181036000830152613062818461300f565b905092915050565b6000819050919050565b61307d8161306a565b811461308857600080fd5b50565b60008135905061309a81613074565b92915050565b6000602082840312156130b6576130b5612eea565b5b60006130c48482850161308b565b91505092915050565b600073ffffffffffffffffffffffffffffffffffffffff82169050919050565b60006130f8826130cd565b9050919050565b613108816130ed565b82525050565b600060208201905061312360008301846130ff565b92915050565b613132816130ed565b811461313d57600080fd5b50565b60008135905061314f81613129565b92915050565b6000806040838503121561316c5761316b612eea565b5b600061317a85828601613140565b925050602061318b8582860161308b565b9150509250929050565b61319e8161306a565b82525050565b60006020820190506131b96000830184613195565b92915050565b600080604083850312156131d6576131d5612eea565b5b60006131e48582860161308b565b92505060206131f58582860161308b565b9150509250929050565b60008060006060848603121561321857613217612eea565b5b600061322686828701613140565b935050602061323786828701613140565b92505060406132488682870161308b565b9150509250925092565b6000819050919050565b61326581613252565b811461327057600080fd5b50565b6000813590506132828161325c565b92915050565b60006020828403121561329e5761329d612eea565b5b60006132ac84828501613273565b91505092915050565b6132be81613252565b82525050565b60006020820190506132d960008301846132b5565b92915050565b600080604083850312156132f6576132f5612eea565b5b600061330485828601613273565b925050602061331585828601613140565b9150509250929050565b60006020828403121561333557613334612eea565b5b600061334384828501613140565b91505092915050565b6000806040838503121561336357613362612eea565b5b600061337185828601613273565b92505060206133828582860161308b565b9150509250929050565b61339581612f79565b81146133a057600080fd5b50565b6000813590506133b28161338c565b92915050565b600080604083850312156133cf576133ce612eea565b5b60006133dd85828601613140565b92505060206133ee858286016133a3565b9150509250929050565b600080fd5b600080fd5b7f4e487b7100000000000000000000000000000000000000000000000000000000600052604160045260246000fd5b61343a82612ffe565b810181811067ffffffffffffffff8211171561345957613458613402565b5b80604052505050565b600061346c612ee0565b90506134788282613431565b919050565b600067ffffffffffffffff82111561349857613497613402565b5b6134a182612ffe565b9050602081019050919050565b82818337600083830152505050565b60006134d06134cb8461347d565b613462565b9050828152602081018484840111156134ec576134eb6133fd565b5b6134f78482856134ae565b509392505050565b600082601f830112613514576135136133f8565b5b81356135248482602086016134bd565b91505092915050565b6000806000806080858703121561354757613546612eea565b5b600061355587828801613140565b945050602061356687828801613140565b93505060406135778782880161308b565b925050606085013567ffffffffffffffff81111561359857613597612eef565b5b6135a4878288016134ff565b91505092959194509250565b600080604083850312156135c7576135c6612eea565b5b60006135d585828601613140565b92505060206135e685828601613140565b9150509250929050565b7f4e487b7100000000000000000000000000000000000000000000000000000000600052602260045260246000fd5b6000600282049050600182168061363757607f821691505b6020821081141561364b5761364a6135f0565b5b50919050565b7f4552433732313a20617070726f76656420717565727920666f72206e6f6e657860008201527f697374656e7420746f6b656e0000000000000000000000000000000000000000602082015250565b60006136ad602c83612fba565b91506136b882613651565b604082019050919050565b600060208201905081810360008301526136dc816136a0565b9050919050565b7f4552433732313a20617070726f76616c20746f2063757272656e74206f776e6560008201527f7200000000000000000000000000000000000000000000000000000000000000602082015250565b600061373f602183612fba565b915061374a826136e3565b604082019050919050565b6000602082019050818103600083015261376e81613732565b9050919050565b7f4552433732313a20617070726f76652063616c6c6572206973206e6f74206f7760008201527f6e6572206e6f7220617070726f76656420666f7220616c6c0000000000000000602082015250565b60006137d1603883612fba565b91506137dc82613775565b604082019050919050565b60006020820190508181036000830152613800816137c4565b9050919050565b600060408201905061381c6000830185613195565b6138296020830184613195565b9392505050565b7f4552433732313a207472616e736665722063616c6c6572206973206e6f74206f60008201527f776e6572206e6f7220617070726f766564000000000000000000000000000000602082015250565b600061388c603183612fba565b915061389782613830565b604082019050919050565b600060208201905081810360008301526138bb8161387f565b9050919050565b7f455243373231456e756d657261626c653a206f776e657220696e646578206f7560008201527f74206f6620626f756e6473000000000000000000000000000000000000000000602082015250565b600061391e602b83612fba565b9150613929826138c2565b604082019050919050565b6000602082019050818103600083015261394d81613911565b9050919050565b7f416363657373436f6e74726f6c3a2063616e206f6e6c792072656e6f756e636560008201527f20726f6c657320666f722073656c660000000000000000000000000000000000602082015250565b60006139b0602f83612fba565b91506139bb82613954565b604082019050919050565b600060208201905081810360008301526139df816139a3565b9050919050565b7f4552433732314275726e61626c653a2063616c6c6572206973206e6f74206f7760008201527f6e6572206e6f7220617070726f76656400000000000000000000000000000000602082015250565b6000613a42603083612fba565b9150613a4d826139e6565b604082019050919050565b60006020820190508181036000830152613a7181613a35565b9050919050565b7f455243373231456e756d657261626c653a20676c6f62616c20696e646578206f60008201527f7574206f6620626f756e64730000000000000000000000000000000000000000602082015250565b6000613ad4602c83612fba565b9150613adf82613a78565b604082019050919050565b60006020820190508181036000830152613b0381613ac7565b9050919050565b7f4e487b7100000000000000000000000000000000000000000000000000000000600052603260045260246000fd5b7f4552433732313a206f776e657220717565727920666f72206e6f6e657869737460008201527f656e7420746f6b656e0000000000000000000000000000000000000000000000602082015250565b6000613b95602983612fba565b9150613ba082613b39565b604082019050919050565b60006020820190508181036000830152613bc481613b88565b9050919050565b6000604082019050613be060008301856130ff565b613bed6020830184613195565b9392505050565b7f4552433732313a2062616c616e636520717565727920666f7220746865207a6560008201527f726f206164647265737300000000000000000000000000000000000000000000602082015250565b6000613c50602a83612fba565b9150613c5b82613bf4565b604082019050919050565b60006020820190508181036000830152613c7f81613c43565b9050919050565b7f4552433732314d657461646174613a2055524920717565727920666f72206e6f60008201527f6e6578697374656e7420746f6b656e0000000000000000000000000000000000602082015250565b6000613ce2602f83612fba565b9150613ced82613c86565b604082019050919050565b60006020820190508181036000830152613d1181613cd5565b9050919050565b600081905092915050565b6000613d2e82612faf565b613d388185613d18565b9350613d48818560208601612fcb565b80840191505092915050565b6000613d608285613d23565b9150613d6c8284613d23565b91508190509392505050565b7f416363657373436f6e74726f6c3a206163636f756e7420000000000000000000600082015250565b6000613dae601783613d18565b9150613db982613d78565b601782019050919050565b7f206973206d697373696e6720726f6c6520000000000000000000000000000000600082015250565b6000613dfa601183613d18565b9150613e0582613dc4565b601182019050919050565b6000613e1b82613da1565b9150613e278285613d23565b9150613e3282613ded565b9150613e3e8284613d23565b91508190509392505050565b7f4552433732313a206f70657261746f7220717565727920666f72206e6f6e657860008201527f697374656e7420746f6b656e0000000000000000000000000000000000000000602082015250565b6000613ea6602c83612fba565b9150613eb182613e4a565b604082019050919050565b60006020820190508181036000830152613ed581613e99565b9050919050565b7f4552433732313a207472616e73666572206f6620746f6b656e2074686174206960008201527f73206e6f74206f776e0000000000000000000000000000000000000000000000602082015250565b6000613f38602983612fba565b9150613f4382613edc565b604082019050919050565b60006020820190508181036000830152613f6781613f2b565b9050919050565b7f4552433732313a207472616e7366657220746f20746865207a65726f2061646460008201527f7265737300000000000000000000000000000000000000000000000000000000602082015250565b6000613fca602483612fba565b9150613fd582613f6e565b604082019050919050565b60006020820190508181036000830152613ff981613fbd565b9050919050565b7f4e487b7100000000000000000000000000000000000000000000000000000000600052601160045260246000fd5b600061403a8261306a565b91506140458361306a565b92508282101561405857614057614000565b5b828203905092915050565b600061406e8261306a565b91506140798361306a565b9250827fffffffffffffffffffffffffffffffffffffffffffffffffffffffffffffffff038211156140ae576140ad614000565b5b828201905092915050565b7f4552433732314d696e7461626c654275726e61626c653a206d7573742068617660008201527f65206d696e74657220726f6c6520746f206d696e740000000000000000000000602082015250565b6000614115603583612fba565b9150614120826140b9565b604082019050919050565b6000602082019050818103600083015261414481614108565b9050919050565b7f4552433732313a20617070726f766520746f2063616c6c657200000000000000600082015250565b6000614181601983612fba565b915061418c8261414b565b602082019050919050565b600060208201905081810360008301526141b081614174565b9050919050565b7f4552433732313a207472616e7366657220746f206e6f6e20455243373231526560008201527f63656976657220696d706c656d656e7465720000000000000000000000000000602082015250565b6000614213603283612fba565b915061421e826141b7565b604082019050919050565b6000602082019050818103600083015261424281614206565b9050919050565b60006142548261306a565b91507fffffffffffffffffffffffffffffffffffffffffffffffffffffffffffffffff82141561428757614286614000565b5b600182019050919050565b7f4e487b7100000000000000000000000000000000000000000000000000000000600052601260045260246000fd5b60006142cc8261306a565b91506142d78361306a565b9250826142e7576142e6614292565b5b828204905092915050565b60006142fd8261306a565b91506143088361306a565b92508261431857614317614292565b5b828206905092915050565b600061432e8261306a565b91506143398361306a565b9250817fffffffffffffffffffffffffffffffffffffffffffffffffffffffffffffffff048311821515161561437257614371614000565b5b828202905092915050565b60006143888261306a565b9150600082141561439c5761439b614000565b5b600182039050919050565b7f537472696e67733a20686578206c656e67746820696e73756666696369656e74600082015250565b60006143dd602083612fba565b91506143e8826143a7565b602082019050919050565b6000602082019050818103600083015261440c816143d0565b9050919050565b7f4552433732313a206d696e7420746f20746865207a65726f2061646472657373600082015250565b6000614449602083612fba565b915061445482614413565b602082019050919050565b600060208201905081810360008301526144788161443c565b9050919050565b7f4552433732313a20746f6b656e20616c7265616479206d696e74656400000000600082015250565b60006144b5601c83612fba565b91506144c08261447f565b602082019050919050565b600060208201905081810360008301526144e4816144a8565b9050919050565b600081519050919050565b600082825260208201905092915050565b6000614512826144eb565b61451c81856144f6565b935061452c818560208601612fcb565b61453581612ffe565b840191505092915050565b600060808201905061455560008301876130ff565b61456260208301866130ff565b61456f6040830185613195565b81810360608301526145818184614507565b905095945050505050565b60008151905061459b81612f20565b92915050565b6000602082840312156145b7576145b6612eea565b5b60006145c58482850161458c565b91505092915050565b7f4e487b7100000000000000000000000000000000000000000000000000000000600052603160045260246000fdfea2646970667358221220f1a640970108540ce4a73453e8520fc3499c0fdcba128375ef26010a16cce5bf64736f6c63430008090033",
  "immutableReferences": {},
  "source": "pragma solidity ^0.8.0;\r\n\r\nimport \"./ERC721MintableBurnable.sol\";\r\n\r\ncontract NonFungibleToken is ERC721MintableBurnable{\r\n    event NFTMinted(address _to, uint256 _id);\r\n    event ProbaUpdated(uint256 _id, uint256 _proba);\r\n    event RewardUpdated(uint256 _id, uint256 _reward);\r\n\r\n    struct NFT{\r\n        uint256 reward;\r\n        uint256 probability;\r\n    }\r\n\r\n    mapping (uint256 => NFT) tokenIdToNFT;\r\n    \r\n    constructor(\r\n        string memory name,\r\n        string memory symbol,\r\n        string memory baseTokenURI\r\n    ) ERC721MintableBurnable(name, symbol, baseTokenURI) {\r\n\r\n    }\r\n\r\n    function getNftProba(uint256 tokenId) public view returns(uint256){\r\n        return tokenIdToNFT[tokenId].probability;\r\n    }\r\n\r\n    function getNftReward(uint256 tokenId) public view returns(uint256){\r\n        return tokenIdToNFT[tokenId].reward;\r\n    }\r\n\r\n    function updateNftProba(uint256 tokenId, uint256 newProba) public onlyRole(MINTER_ROLE) returns(bool){\r\n        tokenIdToNFT[tokenId].probability = newProba;\r\n        emit ProbaUpdated(tokenId, newProba);\r\n        return true;\r\n    }\r\n\r\n    function updateNftReward(uint256 tokenId, uint256 newReward) public onlyRole(MINTER_ROLE) returns(bool){\r\n        tokenIdToNFT[tokenId].reward = newReward;\r\n        emit RewardUpdated(tokenId, newReward);\r\n        return true;\r\n    }\r\n\r\n    function mint(address to) public override returns(uint256) {\r\n        uint256 tokenId = super.mint(to);\r\n        tokenIdToNFT[tokenId] = NFT(1,50);// !! TEMPORARY HARD CODED VALUES\r\n        emit NFTMinted(to, tokenId);\r\n        return tokenId;\r\n    }\r\n}",
  "sourcePath": "C:\\Users\\fenik\\OneDrive\\Documents\\Hunga\\NFTProject\\contracts\\NonFungibleToken.sol",
  "compiler": {
    "name": "solc",
    "version": "0.8.9+commit.e5eed63a.Emscripten.clang"
  },
  "schemaVersion": "3.4.3",
  "updatedAt": "2021-12-09T22:01:41.879Z",
  "networkType": "ethereum",
  "devdoc": {
    "kind": "dev",
    "methods": {
      "approve(address,uint256)": {
        "details": "See {IERC721-approve}."
      },
      "balanceOf(address)": {
        "details": "See {IERC721-balanceOf}."
      },
      "burn(uint256)": {
        "details": "Burns `tokenId`. See {ERC721-_burn}. Requirements: - The caller must own `tokenId` or be an approved operator."
      },
      "getApproved(uint256)": {
        "details": "See {IERC721-getApproved}."
      },
      "getRoleAdmin(bytes32)": {
        "details": "Returns the admin role that controls `role`. See {grantRole} and {revokeRole}. To change a role's admin, use {_setRoleAdmin}."
      },
      "getRoleMember(bytes32,uint256)": {
        "details": "Returns one of the accounts that have `role`. `index` must be a value between 0 and {getRoleMemberCount}, non-inclusive. Role bearers are not sorted in any particular way, and their ordering may change at any point. WARNING: When using {getRoleMember} and {getRoleMemberCount}, make sure you perform all queries on the same block. See the following https://forum.openzeppelin.com/t/iterating-over-elements-on-enumerableset-in-openzeppelin-contracts/2296[forum post] for more information."
      },
      "getRoleMemberCount(bytes32)": {
        "details": "Returns the number of accounts that have `role`. Can be used together with {getRoleMember} to enumerate all bearers of a role."
      },
      "grantRole(bytes32,address)": {
        "details": "Grants `role` to `account`. If `account` had not been already granted `role`, emits a {RoleGranted} event. Requirements: - the caller must have ``role``'s admin role."
      },
      "hasRole(bytes32,address)": {
        "details": "Returns `true` if `account` has been granted `role`."
      },
      "isApprovedForAll(address,address)": {
        "details": "See {IERC721-isApprovedForAll}."
      },
      "mint(address)": {
        "details": "Creates a new token for `to`. Its token ID will be automatically assigned (and available on the emitted {IERC721-Transfer} event), and the token URI autogenerated based on the base URI passed at construction. See {ERC721-_mint}. Requirements: - the caller must have the `MINTER_ROLE`."
      },
      "name()": {
        "details": "See {IERC721Metadata-name}."
      },
      "ownerOf(uint256)": {
        "details": "See {IERC721-ownerOf}."
      },
      "renounceRole(bytes32,address)": {
        "details": "Revokes `role` from the calling account. Roles are often managed via {grantRole} and {revokeRole}: this function's purpose is to provide a mechanism for accounts to lose their privileges if they are compromised (such as when a trusted device is misplaced). If the calling account had been revoked `role`, emits a {RoleRevoked} event. Requirements: - the caller must be `account`."
      },
      "revokeRole(bytes32,address)": {
        "details": "Revokes `role` from `account`. If `account` had been granted `role`, emits a {RoleRevoked} event. Requirements: - the caller must have ``role``'s admin role."
      },
      "safeTransferFrom(address,address,uint256)": {
        "details": "See {IERC721-safeTransferFrom}."
      },
      "safeTransferFrom(address,address,uint256,bytes)": {
        "details": "See {IERC721-safeTransferFrom}."
      },
      "setApprovalForAll(address,bool)": {
        "details": "See {IERC721-setApprovalForAll}."
      },
      "supportsInterface(bytes4)": {
        "details": "See {IERC165-supportsInterface}."
      },
      "symbol()": {
        "details": "See {IERC721Metadata-symbol}."
      },
      "tokenByIndex(uint256)": {
        "details": "See {IERC721Enumerable-tokenByIndex}."
      },
      "tokenOfOwnerByIndex(address,uint256)": {
        "details": "See {IERC721Enumerable-tokenOfOwnerByIndex}."
      },
      "tokenURI(uint256)": {
        "details": "See {IERC721Metadata-tokenURI}."
      },
      "totalSupply()": {
        "details": "See {IERC721Enumerable-totalSupply}."
      },
      "transferFrom(address,address,uint256)": {
        "details": "See {IERC721-transferFrom}."
      }
    },
    "version": 1
  },
  "userdoc": {
    "kind": "user",
    "methods": {},
    "version": 1
  }
}